:10000000D8230020A12200009D2200009D22000094
:1000100000000000000000000000000000000000E0
:100020000000000000000000000000009D22000011
:1000300000000000000000009D2200009D22000042
:100040009D2200009D2200009D2200009D220000B4
:100050009D2200009D2200009D2200009D220000A4
:100060009D2200009D2200009D2200009D22000094
:100070009D2200009D2200009D2200009D22000084
:100080009D2200009D2200009D2200009D22000074
:100090009D2200009D2200009D2200009D22000064
:1000A0009D2200009D2200009D2200009D22000054
:1000B00010B5064C2378002B07D1054B002B02D03E
:1000C000044800E000BF0123237010BDD8010020C8
:1000D00000000000C8470000084B10B5002B03D0FB
:1000E0000749084800E000BF07480368002B00D11B
:1000F00010BD064B002BFBD09847F9E7000000002D
:10010000DC010020C8470000C847000000000000D4
:100110000C4B1B68002B06D1EFF31083002B07D08C
:100120000022094B1A70074A1368013313607047A5
:1001300072B6BFF35F8F0022044B1A700132024B7C
:100140001A70F0E7F4010020F80100200000002000
:10015000084B1A68013A1A601B68002B09D1064B3C
:100160001B78002B05D00122044B1A70BFF35F8F60
:1001700062B67047F4010020F80100200000002062
:1001800000B583B001AB80221A700A785A704A78A1
:100190009A708A78DA701900014B984703B000BD55
:1001A0004D02000030B5D378002B35D11378802B69
:1001B00029D01B0680246402234354780225AC43D3
:1001C00006D19478002C20D18024A40223434160DE
:1001D0005478013C012C1CD90D042D0CA024E405FD
:1001E0002C431C4384620D0CD02424062C431C4356
:1001F0008462D478002C22D15B031CD59378012B28
:100200001ED0416117E00023D7E7C024E402234356
:10021000DDE70D4C2340DFE741600C04240CA023F4
:10022000DB05234383620C0CD0231B06234383622C
:10023000D378002B03D15378013B012B02D930BD79
:100240008161F8E78160FAE7FFFFFBFF10B50A0064
:10025000C1090023002904D14309DB0105498C466B
:1002600063441F242040012181401800024B98471D
:1002700010BDC04600440041A50100000300064A2D
:100280001268002A04D0044A1068C318136070472B
:100290000249014A1160F6E7FC010020D823002042
:1002A00001204042704780239B014B600020704733
:1002B0000120704700207047F0B5DE4657464E4695
:1002C0004546E0B59346002836D00138C0B201302B
:1002D0008A46824400230020052290468022524212
:1002E000944652468A465E4691461FE04908013CC4
:1002F000002C15D0DA09C6094000C0B25B00DBB2A1
:100300003343DBB20E002E40771EBE41D2B2B24262
:10031000ECD042465040C0B262465340DBB2E5E703
:100320005E4601229346DA44CA4507D05246157804
:1003300008248021B346DDE7030000E0B3465A46B7
:10034000137050703CBC90469946A246AB46F0BD37
:1003500010B5002202490020024B984710BDC0464C
:10036000E0FF0000910C000010B5044B98470028F6
:1003700000D010BD024B9847FBE7C046450D00007A
:100380005103000010B50400020008490120084B89
:100390009847002807D0220004490120044B9847C1
:1003A000002800D010BD0020FCE7C046F0FF000090
:1003B000F90C0000F0B5C64600B582B080460D00CD
:1003C00016006B46DC1D0F4F09E0237842461340B0
:1003D000984512D0731E9BB2002E0DD01E00220035
:1003E00009490120B8470028F4D1012DEDD0237828
:1003F00042461342EED100E0E72002B004BC904632
:10040000F0BDC046F90C0000F0FF000010B5034A33
:1004100000210120024B984710BDC046CC100000BF
:10042000B503000010B5034A01214020024B984754
:1004300010BDC046B6300000B5030000F0B5CE4692
:1004400000B584B001900D000227294EB047041E6C
:100450000AD0284B9847013FFFB2002FF6D1200069
:1004600004B004BC9146F0BD2A00FE21090201201F
:10047000214B9847041E0CD12B789946019B994536
:100480000AD84B46043B302B0AD91A4B9847E42430
:10049000E1E7184B9847DEE7164B9847A224DAE7C6
:1004A0006A1C4B46581EC0B2FE210902124B9847E7
:1004B000041E02D00F4B9847CDE74C46023CE4B2F5
:1004C00003AB99461A00290020000C4B98474B4675
:1004D0001A782B5D9A4203D0064B9847E524BAE779
:1004E0002C1903AB5A7863789A42F5D16C78B6E749
:1004F0002504000069030000F90C0000B9020000A7
:10050000F0B5C64600B586B00290019103929846B8
:1005100001271E4E0225B047041E31D14346002B51
:100520001AD1039A01990298194B9847041E1AD1BF
:10053000184B019A9A4204D9200006B004BC904698
:10054000F0BD154B984705A90420144B9847041E8D
:10055000F2D105AB5C78EFE7039A01990298104B52
:100560009847041EE8D0013DEDB2002DD3D1002FF5
:10057000E2D00C4B9847002CDED0013FFFB2C9E718
:10058000002FD9D0074B9847F7E7C0460D0400006D
:10059000910C0000FFFD0000250400003D04000058
:1005A000F90C000069030000F0B5CE4600B582B03A
:1005B00005000C000778CB071CD502260223234038
:1005C000994600232A00FE2109023800154CA04755
:1005D000041E1ED14B46002B1FD16B46D81D124B5B
:1005E000984700280DD16B4607331B78DB060FD4E4
:1005F000040012E0B81E2A18C0B229000B4B98471D
:10060000DBE70500F02808D0094B98472C0004E0F0
:10061000D424013EF6B2002ED3D1200002B004BC97
:100620009146F0BD0105000085030000B9020000FD
:100630006903000070B50C0015001900044B9847C1
:10064000002800D070BD29002000024B9847F9E730
:10065000A90500003D04000010B50023014CA0478F
:1006600010BDC0460105000010B50123014CA04794
:1006700010BDC04601050000F8B5CE46474680B51E
:1006800008AC2478A0460AAC27780CAC26780EACCF
:100690002478A146109C4D46093575197D194544AD
:1006A00025706070A170110AE17022711A0A6271DE
:1006B000E51DA3714346002B10D1002F15D1002E4C
:1006C0001AD14B46002B1ED10023119A3421200051
:1006D000104CA0470CBC90469946F8BD424609997B
:1006E00028000D4B98474544E7E73A000B9928004E
:1006F000094B9847ED19E2E732000D992800064BA7
:100700009847AD19DDE74A460F992800024B9847F4
:10071000DAE7C04635060000EB25000070B582B070
:1007200005000E0000226B46DA80064C6B46991DD0
:100730002800A0470028F9D16B4606331B88337088
:1007400002B070BD771D000070B505008CB2034E7D
:1007500021002800B0470028FAD170BD4D1D0000CF
:1007600002003038C0B209280DD91300413B052BD7
:1007700007D900201300613B052B04D8573AD0B2AB
:1007800001E0373AD0B27047F8B500290ED0040026
:100790000139CDB201354519054E064F217806487D
:1007A000B0472020B8470134AC42F7D1F8BDC0466D
:1007B0000D26000041260000D844000010B52B4B48
:1007C0001B78012B1AD0002B08D0022B1FD0032B33
:1007D00035D00022254B1A70002017E00022244B50
:1007E0001A80282805D001002248234B9847002072
:1007F0000CE001321D4B1A70002007E01F4B984798
:100800001F4B18700222194B1A70002010BD184B94
:100810001C881A4B98471A4B1B781B01C018194BA0
:100820001855FE2C07D80134114B1C8003220F4BA6
:100830001A700020EAE714480F4B9847F6E7202883
:1008400006D0292809D00022084B1A700020DDE7C5
:100850000122064B1A700020D8E70022034B1A70C1
:100860001F380A4B98470120D0E7C0460D020020F0
:1008700038030020B44400000D260000610700008A
:100880000C02002038020020C04400004126000075
:1008900010B50E4B19880E4A04200E4B98470E4B8C
:1008A0001870002805D00D480D4B98470A4B187852
:1008B00010BD0C480A4CA0470B480C4B984704212C
:1008C00003480B4B98470B48A047F1E70E02002066
:1008D0000400002059060000B50300204445000034
:1008E000292700005C450000744500000D2600002B
:1008F000890700005845000070B5194B1988194B3D
:100900001878194A194B9847194B187000281CD1B0
:100910001848194DA8471948194B9847124C0421FB
:100920002000184B98471848A84704222100174870
:10093000174B9847C0B20E4B187000280BD01548C3
:100940000D4B98470A4B187804E013480A4B984718
:10095000074B187870BD1148074B9847FAE7C04617
:100960000E020020020000203C0300206906000067
:10097000B5030020F844000029270000744500005A
:100980000D260000890700005845000004000020E3
:10099000CD25000010450000E04400002C4500007B
:1009A00010B58AB01F4B1B881F4A12881F49099136
:1009B0001F49089100210791069105910491039127
:1009C00002910191009110201A4CA0471A4B187007
:1009D00000281BD119481A4B98471A481A4B9847B8
:1009E000104B1978194C2000194B9847042221000C
:1009F0001848194B9847C0B20F4B187000280CD0FC
:100A000016480F4B98470C4B187804E014480C4BD1
:100A10009847094B18780AB010BD1248084B984700
:100A2000F9E7C046020000200E0200203C0300202F
:100A30006003002079060000B50300207C4400001C
:100A400029270000744500000D2600003E03002009
:100A50008907000004000020CD250000104500009B
:100A6000604400002C450000F0B58BB01F4CA2780C
:100A7000120223791B0261790B43E1780A43617802
:100A800020781B4D09951B4E089600250795069565
:100A9000059504950395029506340194164C248817
:100AA000063CE4B20094154CA04705000A20144C03
:100AB000A0471448144B984731783000134B98479F
:100AC0000A20A047002D05D0290011480E4B984759
:100AD0000BB0F0BD0F480C4B9847054801780B4B05
:100AE00098470A20064B9847F2E7C0463802002094
:100AF0003C0300206003002038030020790600003A
:100B000041260000244400000D2600008907000053
:100B1000444400003444000010B50A4B1B78DAB29C
:100B2000812A09D0822A0AD0802A02D0064B98470F
:100B300001E0064B984710BD054B9847FBE7054B76
:100B40009847F8E738020020690A00009108000081
:100B5000F9080000A109000070B590B0344B984727
:100B60008023DB05009300230193FF2269460A815D
:100B700000228B72CB72012124206C46215401305B
:100B8000215425316354013163540A930531635470
:100B90000131635405932382E376227622776276CD
:100BA0001323A376627780235B030393214B0C937B
:100BB000214B0D9301235B420E930F93E1235B02C4
:100BC00008931E4C1E4B1C601E4A1F4B1A601F4A86
:100BD0001F4B1A606A461F4920001F4B98471F4E43
:100BE0003368986800211E4DA84733685868002173
:100BF000A8472368DA69002AFCD11A6802210A434F
:100C00001A60184B98471848184B9847184E194DBA
:100C1000194C31002800A0470028FADD144B187841
:100C2000164B98470028F4D0154B9847F1E7C0467B
:100C300079220000020016000200170000020020C6
:100C4000D003002049070000CC0300201D0700004E
:100C5000C803002000140042451A000008000020CC
:100C600071270000850C000098440000292700002F
:100C7000B4030020B04400003D270000BD07000081
:100C8000190B000010B5014B984710BD990D0000DD
:100C900070B582B0050016006B46DC1D062323707C
:100CA00001AB02221A700A0A5A7099700F4B9847CA
:100CB000210001200E4B984704000E4B9847002C52
:100CC00002D0200002B070BD084B984701A9032054
:100CD000074B9847041E02D0064B9847F1E73100B6
:100CE0002800034B98470400F6E7C046490D000072
:100CF000710E0000710D000070B582B00500160085
:100D000001AC032323700B0A6370A170094B984751
:100D100021000320084B9847041E04D0074B984736
:100D2000200002B070BD31002800054B9847040038
:100D3000F4E7C046490D0000710E0000710D00007F
:100D4000950E00000020704710B5054B1B78590028
:100D5000C918044BC91801220348044B984710BD19
:100D600010020020C4030020B8030020391700003F
:100D700010B5054B1B785900C918044BC91800223F
:100D80000348044B984710BD10020020C403002004
:100D9000B80300203917000030B591B0284B1B78FC
:100DA000284D5C00E4181B2363552A190023537057
:100DB000937001A901224A708B700A701B20224B8C
:100DC0009847625DD1090023002904D15309DB0152
:100DD0001E498C4663441F211140012210008840A7
:100DE000986102AC2270002303930493237463740C
:100DF000A274E27423752332A354183A002108A880
:100E0000134B9847134BA36180235B02E360124BA3
:100E1000A36201235B42E362104B2363104B6363C5
:100E2000104D220010492800104B98472A68D369BA
:100E3000002BFCD1136802210B43136011B030BDAD
:100E400010020020C4030020810100000044004182
:100E5000FD25000000093D000200300003003600BF
:100E600003003700B8030020001C0042E512000018
:100E700010B582B20548064B9847122803D00028C7
:100E800002D0F02000E0F12010BDC046B8030020E1
:100E90003118000010B582B2FF230548054CA04769
:100EA000122803D0002802D0F02000E0F12010BD6D
:100EB000B803002019160000F0B583B001AC01257D
:100EC00065700027A770257021003E20064EB047B0
:100ED0008022D205054B9A612770657021000F2092
:100EE000B04703B0F0BDC04681010000804400411E
:100EF00010B5490840230024814202D2180010BDD9
:100F00001C00091A631C9BB28842F9D94023FF2CAC
:100F1000F4D814800023F1E7F0B5DE4657464E467C
:100F20004546E0B589B00C00059212AA117805007B
:100F30004D434022A54207D9100009B03CBC904661
:100F40009946A246AB46F0BD002B55D102000800E1
:100F50000021634DA8478346260000270023002474
:100F600000930194002200233F2020218C461F394A
:100F70000296039714E06446241A0D00E540A84643
:100F800015E0029C039D121BAB414D46009E019F44
:100F900035433C00464634430095019401381DD347
:100FA000202464420419E6D40D00A540A8460C0094
:100FB0008440A14692185B4114001D0046465F46DE
:100FC0003E4203D00E00264332002B00029C039DBC
:100FD0009D42E3D8D5D19442E0D8D2E70022012344
:100FE00000980199121A8B411900130C0A041A4334
:100FF000059B1A8000229FE70022012BF8D1630F86
:101000000493E30098460A0000230021344CA047D3
:1010100004000D0000239C46069320339B460126C6
:101020006346079348E05946C91B3000C8408246D2
:1010300010E000980199121A8B4102994846014329
:101040000291013F25D3202149427918EBD4300089
:10105000884082463100B940894692185B411000B1
:10106000190044464D462C40A4465446049D2C404D
:10107000A246644655462C4303D034000443220064
:101080000B00009801999942DBD8D2D19042D8D870
:10109000CFE7009C019D0299079A8B1ADB08114942
:1010A0008B4214D9069B0133DBB21900069313005F
:1010B00001330793082908D000230293002200235C
:1010C0003F21009401950F00BDE7402234E7402204
:1010D0000699082900D12FE74A031A4388E7C0463A
:1010E00031250000FF1F000010B582B004000E4B38
:1010F0001B78002B07D0002905D10B4B5B7883426E
:1011000010D01D200CE001A90C701320074B98474C
:101110001320074B9847044B5C7001221A70002083
:1011200002B010BD0020FBE71402002025220000C1
:1011300099210000404B984231D00AD93F4B984248
:101140004DD03F4B98425AD03E4B984237D000206A
:1011500070473D4B98420CD03C4B9842F7D1012947
:1011600017D000295DD0022915D0032915D0002001
:10117000EEE7012907D0002951D0022905D0032923
:1011800005D00020E4E73248E2E73248E0E73248A1
:10119000DEE73248DCE73248DAE73248D8E70129AF
:1011A00007D000293FD0022905D0032905D000200F
:1011B000CEE72D48CCE72D48CAE72D48C8E70129DE
:1011C00007D0002931D0022905D0032905D00020FD
:1011D000BEE72848BCE72848BAE72848B8E701290D
:1011E00007D0002923D0022905D0032905D00020EB
:1011F000AEE72348ACE72348AAE72348A8E701293C
:1012000007D0002915D0022905D0032905D00020D8
:101210009EE71E489CE71E489AE71E4898E71E482E
:1012200096E7032094E71D4892E71D4890E71D4884
:101230008EE71D488CE7C0460010004200180042AF
:10124000001C00420014004200080042000C004252
:10125000030005000300060003000700030001006F
:1012600003001E0003001F000300090003000A0022
:1012700003000B0003001100030012000300130021
:1012800003000D0003000E0003000F000300170011
:101290000300180003001900030004000300080005
:1012A0000300100003000C000300160030B587B0E7
:1012B0000B4B6A4632CB32C232CB32C2009B8342E6
:1012C0000BD001239A0069465258824206D001335E
:1012D000062BF7D1002007B030BD0023D8B2FAE7C3
:1012E0007C450000F0B5D6464F4680B58BB08146B0
:1012F0000F001400030019600B689B0709D40B68EA
:101300000520DB0700D4B1E00BB00CBC91469A4637
:10131000F0BD936A0593D36A0693136B0793536BDF
:101320000893002605AB01930AE03800AF4B9847BD
:101330000CE00F23184081422DD10136042E2FD00E
:10134000F1B2B300019A98580028EED0431CF4D0B3
:101350000104090C000CC3B29C460023020605D40C
:1013600063465B09DB01A24A924653441F22604652
:101370000240981840300078824680205546ED079C
:10138000D9D552089B1830331878C0B26346DB07B2
:10139000CFD50009CFE700234A4613601C20B3E7EE
:1013A0001320944B984722780025012A16D02178E3
:1013B000002927D13B68E27F1204A07F02431C2052
:1013C0009A42A1D1A369A28B0430205C002801D0ED
:1013D00040200243082003431D4314E004AA0100F7
:1013E000A069854B984703001720002B00D08BE79E
:1013F0003B7BDBB204AA127805309A4200D083E727
:101400000C35D4E700226368A0680343E068034317
:101410002B43207C0243607C002801D080200343C2
:10142000A07C002802D0802080020243E07C0028BB
:1014300002D0802080000243207D002802D080203E
:1014400080010243386802252B43834204D00023E5
:101450004A4613601C2057E77B689342F7D14B46FE
:101460005971237C4A46937100204DE70800634B75
:101470009847634A116A851C0123AB400B431362F2
:1014800009A92426A35D0B701430C5B228005D4B5A
:10149000984728005C4B9847A05D00215B4B98471C
:1014A0002378012B20D02378002B03D13B6808221E
:1014B00013433B604B461E6804AB80221A70002227
:1014C0005A7001219970DA702378002B01D104AB96
:1014D0009A70A36A0593E36A0693236B0793636B81
:1014E0000893002705AD11E03B680C2213433B60D5
:1014F000D9E730003D4B98470DE004A90870000C77
:10150000C0B2434B98470137042F07D0F9B2BB0054
:1015100058590028EDD0431CEFD1F4E723784A4610
:101520005371237C9371A37CD371237D13720022AA
:1015300002ABDA802378012B12D02378002B27D13D
:10154000A069A28B736AE17F0904A57F294319432F
:1015500071622023E35C002B1CD040231A4319E066
:101560004B461868254B98471430C0B2214B98471A
:10157000010002AB9A1DA0691F4B9847030017207A
:10158000002B00D0C0E602AB06331B783373D4E7E0
:10159000002200206368A1680B43E1680B4303430A
:1015A000217C0A43617C002903D11A498978890783
:1015B00001D580210B43A17C002902D08021890222
:1015C0000A43E17C002902D0802189000A43217D61
:1015D000002902D0802189010A4331680B4333601E
:1015E00073681A43726000208EE6C0463511000011
:1015F0000044004141220000F10E0000AD12000045
:10160000000400402522000099210000E91000009C
:101610004D02000000200041F0B5DE4657464E4620
:101620004546E0B588461721002A78D0C4790531AF
:10163000002C74D04179002903D101680C7EA407E5
:101640000CD4013A94B20025042202218A460126D4
:10165000DB05DB0D994604239B463BE002240C7618
:10166000EFE701680B7E3342FCD00B7E334209D09A
:101670004B468B6231E03B7E51460B423CD13B7E78
:10168000134249D007683B7E1342FCD03B7E134295
:1016900044D07B8B00218C46134206D07B8B59466D
:1016A0000B439BB27B831E239C468379012B27D05F
:1016B000BF6AFFB26346002B38D16B1C9BB2414618
:1016C0004F55817901291FD01D00013CA4B2184B50
:1016D0009C421FD04379012BC3D04379002BD1D139
:1016E00007683B7E1342C6D1124B397E1142C2D1EC
:1016F000013B002BF9D1BEE702233B7604210EE02B
:10170000BF6AFF05FF0DD5E70235ADB23F0A41467E
:10171000CF54DAE7614602E0122100E01021080010
:101720003CBC90469946A246AB46F0BD6146F6E702
:10173000FFFF00001027000010B544791523012C8D
:1017400001D0180010BD047A0023002CF9D1002A22
:101750005AD04B78002B46D003681B7EDB0710D491
:101760000A78D1090023002904D15309DB012F494C
:101770008C4663441F21114001228A409A6105234F
:10178000DFE70A78D4090023002C04D15309DB01D8
:10179000264CA44663441F2414400122A2405A61EF
:1017A00003681A7ED20701D58A789A62C27900232B
:1017B000002AC6D102680421137E0B42FCD0117EA0
:1017C00000234907BDD5538B5B0703D5538B0421F9
:1017D0000B4353838379012B02D0936A0023B0E734
:1017E000936A0023ADE70A78D1090023002904D1C8
:1017F0005309DB010D498C4663441F21114001222E
:101800008A405A6100239CE70A78D1090023002905
:1018100004D15309DB0105498C4663441F21114063
:1018200001228A409A6100238BE7C04600440041B0
:10183000F0B5DE4657464E464546E0B585B017231F
:10184000002A07D1180005B03CBC90469946A24634
:10185000AB46F0BD4379002B03D103681C7EA4077F
:101860000BD403920024744B9B4601230225AC4603
:101870000235A946013A92B223E002241C76F0E731
:101880002E7E67463E422DD12D7E1D4200D1C9E0FD
:101890000668357E1D42FCD0651CADB2A8460D5DC4
:1018A0008779012F22D0ADB24446377E1F4202D045
:1018B000ED05ED0DB562551EADB2C679002E1CD1F9
:1018C0002A005A4572D04579002DE1D105682E7E57
:1018D0001E42D5D1594E2F7E1F42D1D1013E002E3E
:1018E000F9D1CDE702232B760233ABE70234A4B261
:1018F0004746CF5D3F023D43D7E74579002D35D1BF
:101900004F4F029112E00234A4B24146029E715C34
:101910000902019E0E4319E0013A92B20668357E33
:1019200049460D4219D1013F002F16D005682E7E81
:101930001E42F3D0661CB1B288460299095D01913E
:1019400081790129DFD069468E884446297E194273
:10195000E2D0F605F60DAE62DEE70299357E674607
:101960003D4210D1357E4E4635425DD00668357E0B
:101970004F463D42FBD0357E3D4208D1039D013D9F
:10198000ADB2039576E70223337602335AE7758BBF
:101990003D4204D0758B04273D43ADB275838579F4
:1019A000012D01D0B56AE9E7B56AE7E74379012B74
:1019B0000DD0002B3AD1C279002A00D142E704248D
:1019C0000425039B002B00D13CE7039E10E0016837
:1019D00002220B7E1342FCD0002333E70B7E23420E
:1019E00026D00B7E23420FD1013EB6B2002E21D06D
:1019F00001680B7E2342F1D1104B0A7E2242EDD1C9
:101A0000013B002BF9D1E9E74B8B234203D04B8BF1
:101A10002B439BB24B838379012B01D08B6AE3E785
:101A20008B6AE1E712230DE712230BE7002309E796
:101A3000122307E7002305E7FFFF0000102700003F
:101A400011270000F0B5DE4657464E464546E0B544
:101A500091B005000C00160029600800B04B9847B3
:101A6000020023680520DB0706D511B03CBC904678
:101A70009946A246AB46F0BD236817309B07F4D4C5
:101A8000A849086A971C0123BB4003430B620FA9B6
:101A90002D27F35D0B701432D3B203931800A24BC1
:101AA00098470398A14B9847F05D0021A04B9847B9
:101AB000F37A6B712423F35CAB712523F35CEB7138
:101AC000F37E2B72337F6B722B6898461800944B11
:101AD0009847143000220E2306A98C4663441A80CE
:101AE000328A03928023DB019A4200D1A2E00FD90F
:101AF000C023DB01039A9A4200D196E080231B02A7
:101B00009A4200D007E1032306930023079308E0DD
:101B100080239B019A4200D0FDE0102306930F3BE7
:101B2000079333689B46F368059373699A46337E3F
:101B300099462623F35C04937368002B00D1A4E03C
:101B400080225205934200D188E0737E002B02D0A0
:101B5000B37E424693732A68039FD369002BFCD15E
:101B60000E3306AA944663441B88424693815B4623
:101B7000059A134352461343726813431F434B465F
:101B80001B021F43049B5B071F432723F35C002BAF
:101B900001D104331F43727E9202337F5B021A43EA
:101BA000B37AF17A0B431A43737F1B021A4324233F
:101BB000F35C5B041A432523F35C1B041A4333894B
:101BC000FF2B00D189E0F17E002900D181E0A02126
:101BD000C9040F431A432C23F35C002B03D1554B4C
:101BE0009B789B0701D580231F432968CB69002B75
:101BF000FCD143465A602A68D369002BFCD1434686
:101C00001F600EAB80221A7000225A70DA709A7030
:101C1000336B0A93736B0B93B36B0C93F36B03935C
:101C20000D9300270AAD444E66E008230693073B58
:101C3000079376E733689B46F368059373699A4682
:101C4000337E99462623F35C04937368002B18D0E7
:101C500080225205934201D0002025E02723F35C27
:101C6000002B00D071E7336A1F00C0B2334B984796
:101C700001000E2206AB9C4662443800304B984768
:101C800012E008230693002307932723F35C002B1D
:101C90000ED0069B0093079B0E2206A98C46624439
:101CA000B16A306A274FB847002800D0DDE64CE71C
:101CB000336A1F00C0B2214B98470100069B009376
:101CC000079B0E2206A88446624438001D4FB84781
:101CD000EAE7802149040F437CE7F37E002B00D123
:101CE00079E78023DB041F4375E72000164B9847F4
:101CF00007E00137042F0CD0F9B2BB005859002877
:101D0000F3D0431CF5D00EA90870000CC0B2B04748
:101D1000EFE70020A9E6102306930023079300E7CE
:101D2000AD120000000400402522000099210000AF
:101D3000E9100000002000414D0200004122000097
:101D4000F10E0000190F000035110000C3791C22AC
:101D5000002B01D1100070470368187E173AC007A6
:101D6000F8D5DA69002AFCD1198502211A7E0A42C7
:101D7000FCD00022EEE782791C23002A01D1180052
:101D800070470268107E173B4007F8D5D369002BD7
:101D9000FCD1538BDBB2980621D0980703D50223E0
:101DA00053831833EBE7580703D5042353831A33BF
:101DB000E5E7D80703D5012353831233DFE7D806BD
:101DC00005D5538B10210B4353834223D7E79B0642
:101DD00005D5538B20210B4353834123CFE7138D2C
:101DE0000B800023CBE7000010B5082803D8800043
:101DF0001B4B1B589F46002030E01A4B18692DE002
:101E0000194B1B6A9B059B0F1848D84026E0154BC1
:101E1000586923E0134B1B6800209B071ED512490D
:101E20001022CB681A42FCD00E4B1B685B0701D412
:101E30000F4813E000200F4B98470A4B9B681B0488
:101E40001B0C58430AE05023074AD35C00205B0771
:101E500004D5044BD86801E08020000210BDC046C4
:101E600094450000180200200008004000127A008B
:101E7000006CDC024122000070B50C490B6A04784A
:101E8000857840780122104080014026B343034307
:101E90002A40D201802083431343032222401202AE
:101EA0000348034013430B6270BDC0460008004066
:101EB000FFFCFFFF082803D88000224B1B589F46D9
:101EC00017203EE0204A136A02210B4313620020D0
:101ED00037E01D4A936902210B439361002030E0F3
:101EE000194A138A02210B431382002029E0164A63
:101EF000938A02210B439382002022E0134B1A683D
:101F000002210A431A601B68114A13400E4A938447
:101F100011001022CB681A42FCD00C4A91680A4B7F
:101F2000D96251689962126892B29A84002008E0DE
:101F3000054944228B5C022003438B54002000E0BF
:101F400000207047B845000000080040180200203B
:101F50007FFF000030B585B0C222D2001A4B9A60D4
:101F60001A4A53681E218B43536001236A4613703B
:101F70000024174DE0B26946A8470134252CF9D159
:101F800003A800244470012585700470114B984704
:101F90000620114B9847114B9847114B1C725C72ED
:101FA0009C72DC7201956B465C7006236A46137066
:101FB00014725472694600200A4B984700200A4B5D
:101FC000984705B030BDC0460008004000400041C1
:101FD00025220000791E0000B51E0000ED1F000044
:101FE0000004004011200000C9200000064A936947
:101FF00008210B4393610122044B1A7019000B78DE
:102000001342FCD17047C04600040040000C004061
:1020100070B5060004000D782D0205434B78002BA7
:1020200002D08023DB021D434B7A002B02D0802399
:102030001B031D434868012810D9431E184234D1A0
:10204000022830D90223002201325B009842FBD8DB
:1020500012023243140080235B031D430B7A002BD2
:1020600002D080239B031D43134A53785BB2002B9D
:10207000FBDB124B9847124B1E700F4A53785BB232
:10208000002BFBDB0C4B9C601A0053785BB2002BDF
:10209000FBDB094A5368802149020B401D43556010
:1020A000084B984770BD0022D2E7040234438023D6
:1020B0009B021D43D2E7C046000C00401101000006
:1020C000080C00405101000010B504000B4A537881
:1020D0005BB2002BFBDB0A4B98470A4B1C70074A8C
:1020E00053785BB2002BFBDB044A516880235B0210
:1020F0000B435360044B984710BDC046000C004092
:1021000011010000040C00405101000070B50400F2
:102110001A4A53785BB2002BFBDB194B9847194BDB
:102120001C70164A53785BB2002BFBDB134E7068B1
:10213000C004C00E144B98470500124B1C70766803
:10214000F602F60F114B1C700C4A53785BB2002B51
:10215000FBDB0A4B9C682402240C0D4B9847002E95
:1021600007D1012C07D9210028000A4B9847050008
:1021700001E00134E540280070BDC046000C00407D
:1021800011010000040C0040E91D0000080C004093
:10219000510100001924000010B50400064B9847B7
:1021A000064B1C70064A53888021C9010B4353809B
:1021B000044B984710BDC04611010000020C0040BE
:1021C000000C00405101000010B504000F4B98476F
:1021D0000F4B1C700F4A53881B05180F53880E496C
:1021E0000B40538053880D490B40538011008022CF
:1021F000D2014B881342FCD106494A8803020648A3
:10220000024013434B80064B984710BD110100005C
:10221000020C0040000C0040FFF0FFFFFFBFFFFF7B
:102220005101000010B50C7824020443024B98477A
:10223000A4B2024B5C8010BDC9210000000C00401C
:1022400010B50400064B9847064B1C70064B5C8883
:102250002405240F054B98472000054B984710BDD7
:1022600011010000020C0040000C00405101000070
:102270000D2100007047000010B5044B9847044B37
:102280009847044B9847044B984710BD551F0000D2
:10229000B90E00007522000075220000FEE7000064
:1022A000F8B52A4A2A4B9A4211D01A00294B9A4271
:1022B0000DD2294A03339B1A9B0801339B0000224D
:1022C000234822498C58845004329A42FAD1234A36
:1022D000234B9A420AD2D34321495B1803218B43F3
:1022E00004339B18002102C29342FCD11D4AFF21F6
:1022F0001D4B8B439360FD3990235B001B4AD150EB
:102300001B4AD3780325AB4302242343D370D378ED
:102310000C27BB4308263343D370164B987B3022DF
:102320009043202210439873997BB94331439973AA
:102330009A7BAA4322439A730F4A536880210B4326
:1023400053600E4B98470E4B9847FEE7C847000076
:1023500000000020D801002004000020D801002047
:10236000D803002000ED00E00000000000700041F4
:102370000050004100480041004000418525000018
:10238000590B0000F0B5C64600B50C009046002879
:102390000FD1002A11DD8F18094E0A4D3068210037
:1023A0002B6898470134BC42F8D1404604BC9046A3
:1023B000F0BD01235B429846F7E78046F5E7C0464B
:1023C000D0030020C8030020F0B5C64600B50E00BB
:1023D00015000138022810D8002A11D000240C4B17
:1023E00098460C4F43461868315D3B689847002873
:1023F00008DB0134A542F5D106E00124644203E084
:10240000140001E001246442200004BC9046F0BDA9
:10241000D0030020CC030020002243088B4274D359
:1024200003098B425FD3030A8B4244D3030B8B42D5
:1024300028D3030C8B420DD3FF22090212BA030CDE
:102440008B4202D31212090265D0030B8B4219D3BF
:1024500000E0090AC30B8B4201D3CB03C01A5241DF
:10246000830B8B4201D38B03C01A5241430B8B4227
:1024700001D34B03C01A5241030B8B4201D30B0310
:10248000C01A5241C30A8B4201D3CB02C01A524137
:10249000830A8B4201D38B02C01A5241430A8B42FA
:1024A00001D34B02C01A5241030A8B4201D30B02E3
:1024B000C01A5241CDD2C3098B4201D3CB01C01AFD
:1024C000524183098B4201D38B01C01A5241430907
:1024D0008B4201D34B01C01A524103098B4201D3F5
:1024E0000B01C01A5241C3088B4201D3CB00C01A62
:1024F000524183088B4201D38B00C01A52414308DA
:102500008B4201D34B00C01A5241411A00D20146FE
:10251000524110467047FFE701B5002000F006F871
:1025200002BDC0460029F7D076E770477047C04625
:10253000F0B5CE46474615042D0C2E0080B5070495
:10254000140C3F0C9946030C7E435D436743634381
:102550007F19340CE4199C46A54203D980235B0201
:102560009846C4444B46514343433604360C250C2D
:1025700024046544A4195918491920000CBC90463C
:102580009946F0BD70B500260C4D0D4C641BA4108F
:10259000A64209D1002602F007F90A4D0A4C641B35
:1025A000A410A64205D170BDB300EB589847013680
:1025B000EEE7B300EB5898470136F2E7B447000066
:1025C000B4470000B4470000B847000030B500240D
:1025D000A24201D1002005E0035D651C0C5DA34211
:1025E00001D0181B30BD2C00F2E7002310B59A4231
:1025F00000D110BDCC5CC4540133F8E7030082184D
:10260000934200D1704719700133F9E70FB40B4BB7
:1026100013B51C68002C05D0A369002B02D1200043
:1026200000F034FB05AB049AA1682000019300F090
:1026300025FD16BC08BC04B01847C04608000020A1
:10264000084B70B51C680500002C05D0A369002B51
:1026500002D1200000F01AFB2900A268200001F03E
:10266000C3FA70BD0800002070B505000E000028F8
:1026700004D08369002B01D100F008FBAB69AC6882
:10268000002B02D1280000F001FB244B9C420FD10B
:102690006C68A3891B0702D52369002B20D1210078
:1026A000280000F071F900281AD00120404270BDC6
:1026B0001B4B9C4201D1AC68EBE71A4B9C42E8D122
:1026C000EC68E6E7013B0136A360002B04DAA2695F
:1026D000934216DB0A2914D023685A1C2260197011
:1026E0003178A3680029EDD1013BA360002B0FDAFC
:1026F00022000A31280000F0F1F8431CD5D00A204E
:10270000D5E72200280000F0E9F8431CE8D1CCE727
:102710000A2023685A1C22601870C8E7004600008F
:1027200020460000E045000010B5034B010018688A
:10273000FFF79AFF10BDC046080000200FB40B4BF6
:1027400013B51C68002C05D0A369002B02D1200012
:1027500000F09CFA05AB049A61682000019301F037
:10276000B7F816BC08BC04B01847C04608000020E3
:102770004A424A41802310B55200DB0000F002F8C3
:1027800010BD0000F0B51D004F4B85B01E68040061
:102790000F000092002E05D0B369002B02D130004B
:1027A00000F074FA494B9C4250D17468009B022B94
:1027B00005D0012B00D984E0002D00DA81E0210052
:1027C000300000F0E1F9616B002908D023004433A8
:1027D000994202D0300000F081FB002363630023A4
:1027E000A3616360A3891B0603D52169300000F053
:1027F00075FBA389364A1340A381009B022B5AD054
:1028000003AB02AA2100300000F0F2FAA3891843BA
:10281000A081002D24D1029D280000F055FB0195D8
:10282000071E42D1029B0193AB4239D101204042A5
:102830000223A2891343A3810023A360230047330B
:10284000236023610123636105B0F0BD214B9C42ED
:1028500001D1B468AAE7204B9C42A7D1F468A5E750
:10286000002FD9D0B369002B02D1300000F00EFA4E
:10287000009B012B03D1A389009A1A43A28108204F
:10288000A389276027616561184018D0012018408E
:102890000023984211D06D42A360A5611800D3E7D0
:1028A000019800F011FB071EC0D08023A289019D72
:1028B0001343A381D6E70020BAE7A560C4E7A06070
:1028C000C2E701204042BFE70800002000460000A8
:1028D0005CF3FFFF20460000E0450000F8B505006E
:1028E0000E001400002804D08369002B01D100F0F1
:1028F000CDF9224B9C422DD16C68A369A360A389BA
:102900001B0731D52369002B2ED023682269F7B22B
:10291000981A6369F6B2984205DB2100280000F09E
:1029200033F9002826D1A3680130013BA360236856
:102930005A1C22601F706369984204D0A389DB0788
:102940001AD50A2E18D12100280000F01DF9002800
:1029500012D00FE00A4B9C4201D1AC68CDE7094B85
:102960009C42CAD1EC68C8E72100280000F00CF8AE
:102970000028CAD0012676423000F8BD004600008B
:1029800020460000E0450000364B70B51D6806008B
:102990000C00002D05D0AB69002B02D1280000F0FF
:1029A00075F9314B9C420FD16C680C23E25E93B2F7
:1029B00019072DD4D90611D40923012033603733E8
:1029C0001343A381404270BD284B9C4201D1AC68A7
:1029D000EBE7274B9C42E8D1EC68E6E75B0713D5B1
:1029E000616B002908D023004433994202D03000A3
:1029F00000F074FA002363632422A3899343A38124
:102A000000236360236923600823A2891343A38101
:102A10002369002B0BD1A0218022A3898900920079
:102A20000B40934203D02100300000F009FA01234B
:102A3000A289134011D00023A36063695B42A361A4
:102A4000002023698342BED10C23E25E1306BAD56F
:102A500040231343A3810138B5E7920700D463698B
:102A6000A360EDE7080000200046000020460000BB
:102A7000E0450000F7B58A8905000C00130760D413
:102A80004B68002B04DC0B6C002B01DC0020FEBD2E
:102A9000E76A002FFAD000232E682B6080235B01A9
:102AA0001A4034D0606DA3895B0706D56368C01AED
:102AB000636B002B01D0236CC01A0200216A002333
:102AC0002800E76AB847A189431C06D12B681D2B53
:102AD00031D82C4ADA40D3072DD50023636023690F
:102AE0002360CB0405D5431C02D12B68002B00D1F9
:102AF0006065616B2E600029C8D023004433994281
:102B000002D0280000F0EAF900206063BFE701234B
:102B1000216A2800B847431CC5D12B68002BC2D0BE
:102B20001D2B01D0162B01D12E60AFE74023A289C7
:102B30001343A381ABE740230B430120A381404211
:102B4000A5E70F69002FA1D00B680F60DB1B019375
:102B50000023920700D14B69A360019B002B00DC8E
:102B600094E7019B3A00216A2800A66AB047002832
:102B700003DC4023A2891343DFE7019B3F181B1AA4
:102B80000193EAE7010040200B6970B505000C00D5
:102B9000002B01D1002070BD002804D08369002BD8
:102BA00001D100F073F80B4B9C4209D16C680C22E8
:102BB000A35E002BEED021002800FFF75BFFEAE7C1
:102BC000054B9C4201D1AC68F1E7044B9C42EED12D
:102BD000EC68ECE70046000020460000E0450000FD
:102BE00010B5011E05D1054B0549186800F0DEF847
:102BF00010BD044B1868FFF7C7FFF9E7DC4500007C
:102C0000892B00000800002010B5024900F0CEF822
:102C100010BDC046892B0000002310B504000360DE
:102C20004360836081814366C28103614361836144
:102C3000190008225C30FFF7E1FC054B2462636257
:102C4000044BA362044BE362044B236310BDC046F4
:102C5000153E00003D3E0000753E0000A13E000014
:102C600070B568254A1E55430E002900743100F0E6
:102C70007FF9041E08D000212A00016046600C3054
:102C8000A0606832FFF7BAFC200070BD836913B5FD
:102C90000400002B28D18364C3640365134B144ADA
:102CA0001B6882620193984201D101238361200055
:102CB00000F020F86060200000F01CF8A060200008
:102CC00000F018F80022E06004216068FFF7A4FF1C
:102CD00001220921A068FFF79FFF02221221E0686C
:102CE000FFF79AFF0123A36113BDC046DC45000036
:102CF000092C0000F8B51E4B07001E68B369002BB5
:102D000002D13000FFF7C2FF4836B4687368013B58
:102D100004D53368002B07D03668F6E70C22A55E91
:102D2000002D0DD06834F2E704213800FFF798FF3A
:102D300030600028F0D10C2304003B602000F8BD77
:102D4000012320005B42E3810233A3816566256095
:102D5000A560656025616561A561082229005C3078
:102D6000FFF74CFC6563A563A564E564E6E7C04630
:102D7000DC450000F7B54830040000260191002C26
:102D800001D13000FEBDA5686768013F01D5246808
:102D9000F5E7AB89012B07D90E22AB5E013303D0D7
:102DA0002800019B984706436835EEE7F7B5040015
:102DB0000700002601914834002C01D13000FEBDEF
:102DC0006368A5680093009B013B009301D52468CC
:102DD000F2E7AB89012B08D90E22AB5E013304D098
:102DE00029003800019B984706436835EBE700004F
:102DF00070B50E001D000E23C95E90B014000029AE
:102E000007DA00232B60B3891B0611D48023DB0073
:102E10000FE001AA01F04EFA0028F2DBF022029B3B
:102E200012021340054A9B185A4253412B60EDE7AA
:102E300040230020236010B070BDC04600E0FFFFBB
:102E4000F7B502268B8905000C00334206D023001B
:102E500047332360236101236361F7BD01AB6A46F9
:102E6000FFF7C6FF00990700280000F081F800284E
:102E700008D10C22A35E9A05EFD4032293431E438C
:102E8000A681E4E70F4BAB628023A2892060134345
:102E9000A381009B20616361019B002B0DD00E2359
:102EA000E15E280001F018FA002806D00322A38969
:102EB00093431A0001231343A381A0893843A081BF
:102EC000CBE7C046092C000010B5034B0100186881
:102ED00000F04EF810BDC0460800002070B5050097
:102EE000002910D00C1F2368002B00DAE4182800FA
:102EF00001F047FA1D4A1368002B05D16360146086
:102F0000280001F03FFA70BDA34209D9216860187A
:102F10008342F3D118685B6841182160EEE7130023
:102F20005A68002A01D0A242F9D919685818A0425B
:102F30000BD120680918581819608242E0D1106836
:102F40005268411819605A60DAE7A04202D90C238E
:102F50002B60D5E721686018824203D1106852685F
:102F60004118216062605C60CAE7C0463002002000
:102F7000032370B5CD1C9D43083506000C2D1ED2D1
:102F80000C25A9421DD8300001F0FBF9254A146830
:102F90002100002919D1244C2368002B03D13000D3
:102FA00000F0F4FE20602900300000F0EFFE431C2A
:102FB0002CD10C233000336001F0E4F903E0002D44
:102FC000DFDA0C233360002070BD0B685B1B1AD462
:102FD0000B2B03D90B60CC18256003E08C420ED17B
:102FE00063681360300001F0CDF9200007220B3038
:102FF000231D9043C31AE7D05A42E250E4E74B68DE
:1030000063600C00EEE70C004968C2E70323C41CB0
:103010009C43A042E0D0211A300000F0B7FE431CD0
:10302000DAD1C6E73002002034020020936810B5E0
:10303000013B9360002B05DA9469A34208DBCBB215
:103040000A2B05D01368581C10601970C8B210BD47
:10305000FFF744FCFBE7F8B506000F001400D51895
:10306000AC4201D1002007E021783A003000FFF7A0
:10307000DDFF0134431CF3D1F8BD0000F0B59FB073
:1030800006000F0014000593002804D08369002B6C
:1030900001D1FFF7FBFD7F4B9F425CD17768BB8975
:1030A0001B0762D53B69002B5FD0002306AD6B6127
:1030B00020336B761033AB760294029C2378002B7E
:1030C0005DD1029BE31A04930DD0049B029A390050
:1030D0003000FFF7C0FF431C00D1CCE06A69049BBD
:1030E000944663446B612378002B00D1C3E0012236
:1030F000002352426A6002A95432521801342B60F4
:10310000EB60AB601370AB6521780522624801F07B
:103110002DF9631C9C46002835D12968CB0604D5BF
:10312000532302AA20309B1818700B0704D5532391
:103130002B2002AA9B18187023782A2B2CD0002051
:103140000A21099B2278303A092A00D86BE000282E
:103150002AD0099328E0514B9F4201D1B7689EE7DE
:103160004F4B9F429BD1F76899E739003000FFF73A
:103170000BFC002899D0012040421FB0F0BD252B48
:103180009FD001349AE7444B2968C01A0123834039
:103190000B432B606446B7E7059B181D1B68059021
:1031A000002B3ADB0993644623782E2B0BD16378EE
:1031B000621C2A2B3FD1059B02341A1D1B68059205
:1031C000002B35DB079321780322364801F0CEF837
:1031D000002807D0334B2A68C01A4023834013438A
:1031E0002B6001342178631C06222F480293297634
:1031F00001F0BCF8002844D02C4B002B2FD12968BB
:10320000059B0722C90528D59B18934308330593CE
:103210006B69039A9B186B614FE75B42EB6002237B
:103220000B432B60BFE74B4301349B18012089E718
:1032300001235B42C6E7002314000A201A006B60DA
:1032400021783039092903D9002BBCD00792BAE77D
:103250004243013452180123F2E70733D5E705ABA7
:1032600000933A00124B2900300000E000BF0390A9
:10327000039B0133CCD1BB895B0600D57BE70B9860
:103280007BE705AB00933A00094B2900300000F0C2
:103290007FF8ECE7004600004046000020460000B2
:1032A000E0450000464600004A46000000000000DD
:1032B00057300000F7B5150001938A680B6900903C
:1032C0000C00934200DA130022002B604332127884
:1032D000002A01D001332B6023689B0602D52B689E
:1032E00002332B60062723681F4027D02300433377
:1032F0001B785A1E93412268920630D4220001990D
:1033000043320098089EB047431C25D0062320680E
:103310002A68E16803400025042B03D18D1AEB4392
:10332000DB171D40A3682269934201DD9B1AED184B
:103330000027BD4220D1002010E00137E3682A6851
:103340009B1A9F42D2DA2200012319320199009878
:10335000089EB047431CF0D101204042FEBD302002
:10336000E1184331087021005A1C45310978A21830
:10337000433202331170C1E7220001231A3201994E
:103380000098089EB047431CE6D00137D1E7000003
:10339000F0B58BB006920A00433207930590049271
:1033A0000A7E0C00109B6E2A00D18FE017D8632A8A
:1033B0002CD008D8002A00D199E0582A54D02600F1
:1033C0004236327029E0642A01D0692AF7D1216897
:1033D0001A68080623D5111D1960156825E0732A9F
:1033E00000D188E008D86F2A29D0702AE7D120229E
:1033F00009680A43226003E0752A20D0782ADED1CA
:1034000022007821453211706C4A30E00E001A68B3
:103410004236111D196013683370012379E04906A3
:10342000D9D5111D19600023D55E002D03DA2D2397
:10343000049A6D421370624B0A2703932FE02068B1
:103440001968050603D5081D18600D6805E04006DB
:10345000F9D50D68081D1860ADB2594B08270393C4
:103460006F2A18D00A2716E045310A70544A039291
:103470001A682168101D18601568080622D5CB0748
:1034800002D52023194321601027002D03D12023CA
:1034900022689A4322602300002243331A70636833
:1034A000A360002B5CDB0422216891432160002D86
:1034B00058D1049E002B64D02600039B42361B7813
:1034C00033705EE04806DAD5ADB2D8E709681A680D
:1034D000080605D5111D1960136862691A6006E0B7
:1034E0004906F7D5111D19601368A28A1A800023B6
:1034F000049E236154E01A68111D196016680021AA
:103500006268300000F032FF002801D0801B60604C
:10351000636823610023049A137041E02369320039
:1035200006990598079DA847431C43D023680025AA
:103530009B070FD4099BE06898423DDA18003BE0F6
:1035400022000123193206990598079EB047431CB3
:1035500030D00135E368099A9B1A9D42F0DBE9E718
:10356000002DA9D0049E28003900FEF7DBFF039B45
:10357000013E5B5C280033703900FEF74DFF051EED
:10358000F1D1082F09D12368DB0706D563682269CA
:10359000934202DC3023013E3370049B9B1B23616A
:1035A000079B09AA00932100069B0598FFF782FE5E
:1035B000431CB3D1012040420BB0F0BD6246000075
:1035C00051460000F0B5BD4C8625A5440393002369
:1035D0004893499305AB4A93BE236D0000900C00BD
:1035E00002A8B7495B004019C027C15002AB5B1964
:1035F0001500B4497F00D9512B78002B00D15BE135
:1036000000F080FE08222B78C01801934378134005
:1036100041D1019A6E1C252A00D0A8E0479345931A
:103620006B782A2B02D11A3B4593AE1C35000A2237
:1036300029780B00303B092B48D9A34E03223000D8
:1036400000F094FE002807D00123801B8340459A98
:1036500001351343029245932B786E1C672B58D883
:10366000652B00D3DDE0472B38D8452B00D3D8E0BD
:10367000002B00D11DE1252B79D003234B93073379
:10368000469353E0499A01330192013249926268AC
:103690002360013A62606368002B0BDD00F032FEAC
:1036A000082123681A78801842780A42EAD16E1CF1
:1036B0003500A1E7862202AB52009B18DB5921009E
:1036C0000098019398470028E8D0F0E7479B013520
:1036D00002935343303B59184791A9E75B2B00D124
:1036E00077E00FD8582BC8D1459A019280220199D2
:1036F00092000A4345921022469203226E2B14DD5B
:10370000013212E0632B00D171E0642BB5D10A22A3
:10371000F2E7702B52D022D86E2B00D16FE054D834
:10372000692BAAD10023032246934B926368002B96
:1037300000DC78E0459B01935B0600D48BE04B9B5B
:10374000022B00DD9DE003AB220045A9009800F0AC
:10375000E7F8012800D1AFE00228A9D125E0752BB8
:10376000D5D0782BC0D0732B87D102233DE063687E
:10377000002B0FDD236801991A78914200D09BE05D
:10378000013362682360499B013A0193013362600F
:1037900049938DE7862202AB52009B18DB5921002A
:1037A0000098029398470028E4D04898002800D059
:1037B0007BE00138A7239B009D44F0BD459A019210
:1037C000202201990A4345928EE70823042246935A
:1037D000ABE7310005A800F0EBFA459B060001932A
:1037E0004023019A1343459301234B939EE7459B46
:1037F00001934023019A134345930023F5E745992C
:10380000CB0600D554E7039B499AC80704D5191D78
:1038100003911B681A804BE7191D03911B681A60FE
:1038200046E70523E1E7862202AB52009B18DB59ED
:103830002100009801939847002800D17AE7B4E767
:10384000499A0192013249926268013A6260002A03
:103850000BDD0133236000F055FD082123681A7841
:10386000801842780A42EBD169E7862202AB520007
:103870009B18DB5921000098019398470028EAD053
:1038800093E7042B06DC03AB220045A9009800F067
:10389000ABF85EE70D4B002B00D109E703AB22002C
:1038A00045A9009800E000BF53E7A3895B0600D458
:1038B00080E7012040427DE748987BE764FDFFFFF9
:1038C000854100006D3C00004646000000000000FD
:1038D000F8B504000D0016001F00002804D083690D
:1038E000002B01D1FFF7D2F90A4B9D4207D1656841
:1038F0003B00320029002000FFF764FEF8BD064BB4
:103900009D4201D1A568F3E7044B9D42F0D1E568E3
:10391000EEE7C0460046000020460000E0450000FB
:10392000F7B515008A6801900C00002A06D18A6953
:10393000511E8A41012152420A43A2602268D206E6
:1039400003D41A68111D196017680026A369002B9B
:103950001CD0012B08D12B6862691B78D35C002B2B
:1039600014D1002E30D106E0022B06D0002E2BD130
:10397000A369012B28D10120FEBD00F0C3FC082261
:103980002B681B78C01843781342EFD110222368AC
:103990000136134203D12B681B783B7001372A682C
:1039A0006B6801322A60A268013B013A6B60A26039
:1039B000002A09D0002BC9DCC0235B00E358290092
:1039C000019898470028C1D010232268134006D1DF
:1039D000E2680132E260A269002A00D03B702369EC
:1039E00000209E192661C7E7F0B50C008DB0029348
:1039F000774B0590160009AA23CB23C2754B06937B
:103A0000A369032B01D0744B0693AE220020A36858
:103A10005200591E0490914205D95E3BFF3B04932E
:103A20005E23FF33A36023001C330193D0230027C0
:103A300022681B0113432360019B0393336809A889
:103A40001978BB000222185800F090FC00282BD0F7
:103A5000012F5FD16368002B06D1083322686360B1
:103A6000F933FF33134323605C4B22681340236018
:103A7000A3685A1EA260002B16D0039B5D1C3368FE
:103A80005A1C32601B78039A039513707368013BCC
:103A90007360002B08DCC0235B00E35831000598FD
:103AA0000793984700287DD10137032FC6D163685B
:103AB000002B01D10A33636010210027636860691D
:103AC000C91A474BC91800F073F9039DA368002B6E
:103AD00041D0326860691178405C00283BD03029C1
:103AE00028D1802021680001014223D0049A0137A7
:103AF000002A03D0013A01330492A3607368013BAA
:103B00007360002B1EDD336801333360A368013B13
:103B1000A360DBE7022FABD1C02180232268C9005C
:103B200011409B009942C2D1F13BFF3B6360F033EF
:103B300013439CE721682B4B0B40236013782B70B9
:103B40000135DBE7C0235B00E358310005980393A0
:103B500098470028DAD02368DB050ED5019B9D42EB
:103B600007D9BE23013D5B002978E3583200059850
:103B70009847019B01209D4227D0102223681A40BC
:103B80001CD12A70636801990598069EB047029B74
:103B900022681B68910607D502991A1D0A601B68E6
:103BA000186008E00027D6E7D107F5D502991A1D5D
:103BB0000A601B681880E3680133E3600020019B02
:103BC000ED1A2369EF19DF1927610DB0F0BDC0466A
:103BD00074460000B93F0000E9400000FFFAFFFF13
:103BE00080460000FFF6FFFF70B506000D001400D0
:103BF000002804D08369002B01D1FFF747F8124B4E
:103C00009C4211D17468A368013BA360002B05DAC4
:103C1000A269934212DBEBB20A2B0FD02368E8B201
:103C20005A1C22601D7070BD084B9C4201D1B468C3
:103C3000E9E7074B9C42E6D1F468E4E7220029005B
:103C40003000FEF74BFEEEE7004600002046000085
:103C5000E0450000092210B5838913400022092B9A
:103C600002D1FEF7BDFF0200100010BDF8B505003F
:103C70000C00002804D08369002B01D1FFF706F85F
:103C80003D4B9C420AD16C68002363600C23E25ECA
:103C900093B299060CD50120404268E0374B9C4214
:103CA00001D1AC68F0E7364B9C42EDD1EC68EBE714
:103CB00059074AD4D90605D409232B603733134357
:103CC000A381E8E7082633420AD021002800FEF746
:103CD0005BFF0028DFD1A389A060B343A381A0616B
:103CE0000423A2891343A3812369002B03D121005C
:103CF0002800FFF7A5F80C23E75EBEB2B3070FD08C
:103D00000123A3811F4B20491868FFF733F80923CB
:103D1000A7811E409E4203D121002800FEF7AAFE83
:103D200023692269236028006369216A656AA847BC
:103D3000020060600020824219DCA189824217D112
:103D400020230B43A381013811E0616B0029CBD004
:103D500023004433994202D02800FFF7BFF8002027
:103D6000236C606363608342BED0E36B2360F8BD65
:103D7000402360600B43A3E700460000204600009C
:103D8000E0450000DC450000553C0000002370B514
:103D9000064C050008002360FCF770FA431C03D1B1
:103DA0002368002B00D02B6070BDC046D4030020D8
:103DB00070B50B785E2B0DD04A1C00210400451C09
:103DC000FF3521700134A542FBD1002B06D1013A09
:103DD000100070BD8A1C4B780121EFE701244C4094
:103DE0001100C4540D784A1C2D2D07D05D2DEFD045
:103DF000002D01D10A00EBE72B00F1E74E785D2E94
:103E0000FAD0B342F8DC02310133C4549E42FBDCE9
:103E1000E8E7000070B50C000E25495F00F0DAFA03
:103E2000002803DB636D1B18636570BDA389024A1C
:103E30001340A381F9E7C046FFEFFFFFF8B51F006D
:103E40008B8905000C001600DB0505D50E23C95E25
:103E50000022022300F064FAA389054A28001340D7
:103E6000A38132000E23E15E3B0000F0FDF9F8BDB6
:103E7000FFEFFFFF70B50C000E25495F00F050FA10
:103E8000A389421C03D1054A1340A38170BD80223F
:103E900052011343A3816065F8E7C046FFEFFFFFBF
:103EA00010B50E23C95E00F0F3F910BDF0B51F0088
:103EB0000E0087B00590039102920C98347800F0C0
:103EC0001DFA082200194378751C13400CD12D2CC3
:103ED0000CD101332C780193B51C002F0CD0102F7E
:103EE00014D1302C0AD011E02E00E6E701932B2CE0
:103EF000F3D12C78B51CF0E7302C2FD120222B7871
:103F00009343582B51D110276C780235019B294AD5
:103F100039009E183000FEF705FB3000049139008F
:103F2000FEF77AFA01210023494202008C4618006C
:103F300021003039092913D80C00A7421CDD591C77
:103F400009D06346824206D302D10499A14202DB22
:103F50000123784320182C780135E9E70A27D5E7B3
:103F600021004139192901D8373CE6E721006139A0
:103F7000192901D8573CE0E75A1C08D1059A233388
:103F80001360029B3000002B0BD107B0F0BD019AEB
:103F9000002A00D04042029A002AF6D0039A002B51
:103FA00000D06A1E029B1A60EFE73024002FADD1CB
:103FB0000837ABE7FFFFFF7F13B5054C2468246A81
:103FC000002C00D1034C0094FFF770FF16BDC046D3
:103FD000080000206C000020F0B51F000E0087B024
:103FE0000590039101920C98347800F087F908222B
:103FF00000194378751C13400CD12D2C0CD10133C2
:104000002C780293B51C002F0CD0102F14D1302C1B
:104010000AD011E02E00E6E702932B2CF3D12C7886
:10402000B51CF0E7302C2FD120222B789343582B4E
:1040300054D110276C780235012039004042FEF738
:10404000EBF90600012039004042FEF76BFA00232D
:1040500004910121012218008C465242210030397E
:10406000092913D80C00A7421EDD002B1ADB130010
:10407000864206D302D10499A14202DB634678430B
:1040800020182C780135E9E70A27D5E721004139C6
:10409000192901D8373CE6E721006139192903D8ED
:1040A000573CE0E71300ECE7002B09DA222301205C
:1040B000059A40421360019B002B0BD107B0F0BD65
:1040C000029A002A00D04042019A002AF6D0039AB0
:1040D000002B00D06A1E019B1A60EFE73024002FEE
:1040E000AAD10837A8E7000013B5054C2468246A54
:1040F000002C00D1034C0094FFF76EFF16BDC046A4
:10410000080000206C0000200B00F7B54D6B443315
:104110000C009D421CD18026F6003100FEF728FFDE
:10412000002802D101204042FEBD23006063A66347
:1041300046331A78104BC254230045331A780F4B7C
:10414000C2542A780E4BC254C01820600020EBE7FE
:104150008E6B290073001A00019300F014F9051EFC
:10416000E0D08719010032003800FEF73EFA019BCB
:1041700027606563A363E9E7FF030000FE03000017
:10418000FD030000F8B505000E0014004B1C03D120
:10419000012676423000F8BD002804D08369002B48
:1041A00001D1FEF773FD2D4B9C422DD16C6820226E
:1041B000A38993431BB2A3819BB25A0713D4DA0697
:1041C000E6D508273B420AD021002800FEF7DCFC98
:1041D0000028DDD1A389A060BB43A381A061042393
:1041E000A2891343A381626BF7B26368F6B2002A17
:1041F0001BD0A26B934211DA2368013B23601F702E
:10420000636801336360C5E7154B9C4201D1AC681C
:10421000CDE7144B9C42CAD1EC68C8E721002800C6
:10422000FFF772FF0028E7D0B2E721692268002972
:1042300007D0914205D2511E0878864201D12160F3
:10424000DFE723642300443363630323A363230072
:104250004633E2631F7023600123D3E7004600006A
:1042600020460000E045000070B505000800110080
:104270000022064C22601A00FEF7A6F8431C03D168
:104280002368002B00D02B6070BDC046D4030020F3
:10429000002370B5064C050008002360FCF700F809
:1042A000431C03D12368002B00D02B6070BDC04697
:1042B000D4030020002370B5064C0500080011004F
:1042C0002360FBF7F0FF431C03D12368002B00D0D1
:1042D0002B6070BDD4030020002370B5064C050090
:1042E00008002360FBF7E4FF431C03D12368002B85
:1042F00000D02B6070BDC046D4030020EC300068B5
:1043000070470000044B1B681B6A002B00D1034B55
:10431000EC3318687047C046080000206C0000208D
:1043200070B50500080011000022064C22601A003A
:10433000FBF7C0FF431C03D12368002B00D02B6088
:1043400070BDC046D403002082B0002900D101A96D
:10435000101E06D0002B06D013780B601078431E79
:10436000984102B0704702204042FAE7C9B2821871
:10437000904201D10020704703788B42FBD001307E
:10438000F6E770477047F8B507000D0016000029E2
:1043900005D11100FEF7ECFD04002000F8BD002A55
:1043A00003D1FEF79BFD3400F7E700F033F82C0053
:1043B0008642F2D931003800FEF7DAFD041EECD057
:1043C00029003200FEF711F929003800FEF786FDBA
:1043D000E3E7000070B50500080011000022064C5C
:1043E00022601A00FDF7CEFF431C03D12368002B87
:1043F00000D02B6070BDC046D40300200B1E04D03B
:10440000FF2A04D98A2303608B3B180070470A7087
:104410000123FAE70B1F1B68181F002B01DA0B584A
:10442000C0187047545820627566666572203D203A
:1044300030780000525820627566666572203D2013
:10444000307800004661696C656421207265745F94
:10445000636F6465203D203078252E32580A0000B5
:10446000426C6F636B2052656164206D656D6F7285
:1044700079206661696C6564210D0000426C6F6390
:104480006B2052656164206D656D6F727920737564
:104490006363657373210D002A2A2A2A2A41455332
:1044A00031333220544553542A2A2A2A2A0D000037
:1044B00025630000496E707574203A256300000082
:1044C0004572726F7220627566666572206F7665DE
:1044D00072666C6F77000000252E325800000000D5
:1044E00052656164206D656D6F7279206661696CDB
:1044F0006564210D0000000052656164206D656DEA
:104500006F72792073756363657373210D0000000A
:10451000436F6D70617265204D656D6F7279206DAE
:1045200069736D61746368210D000000436F6D70E5
:10453000617265204D656D6F7279206D617463687D
:10454000210D00005772697465206D656D6F727979
:10455000206661696C6564210D0000005772697402
:1045600065206D656D6F7279207375636365737314
:10457000210D0000446174613A20000000080042EF
:10458000000C0042001000420014004200180042DB
:10459000001C0042FA1D0000F61D0000F61D000080
:1045A000581E0000581E00000E1E0000001E0000D5
:1045B000141E0000461E0000E01E0000C01E000089
:1045C000C01E0000401F0000D21E0000EE1E0000B2
:1045D000C41E0000FC1E0000301F00000C00002064
:1045E00000000000000000000000000000000000CB
:1045F00000000000000000000000000000000000BB
:1046000000000000000000000000000000000000AA
:10461000000000000000000000000000000000009A
:10462000000000000000000000000000000000008A
:10463000000000000000000000000000000000007A
:10464000232D302B2000686C4C006566674546477B
:1046500000303132333435363738394142434445FE
:10466000460030313233343536373839616263646D
:1046700065660000924600009546000098460000DE
:10468000412D46612D663839303132333435363775
:104690005D002B2D003030007858004300504F5300
:1046A0004958002E000020202020202020202028F3
:1046B00028282828202020202020202020202020DA
:1046C0002020202020208810101010101010101012
:1046D0001010101010100404040404040404040452
:1046E00010101010101010414141414141010101D1
:1046F00001010101010101010101010101010101AA
:1047000001101010101010424242424242020202B6
:104710000202020202020202020202020202020279
:104720000210101010200000000000000000000027
:104730000000000000000000000000000000000079
:104740000000000000000000000000000000000069
:104750000000000000000000000000000000000059
:104760000000000000000000000000000000000049
:104770000000000000000000000000000000000039
:104780000000000000000000000000000000000029
:104790000000000000000000000000000000000019
:1047A0000000000000000000F8B5C046F8BC08BCDE
:1047B0009E467047D9000000F8B5C046F8BC08BC5A
:0847C0009E467047B1000000A5
:1047C8000100040055AABCDE0C0000200000000017
:1047D8000046000020460000E04500000000000000
:1047E80000000000000000000000000000000000C1
:1047F80000000000000000000000000000000000B1
:1048080000000000000000000000000000000000A0
:104818000000000000000000000000000000000090
:10482800000000000000000000000000430000003D
:104838000000000000000000000000000000000070
:10484800000000000000000000000000430000001D
:104858000000000000000000000000000000000050
:1048680000000000000000000000000043000000FD
:104878000000000000000000000000000000000030
:1048880000000000000000000000000043000000DD
:104898000000000000000000000000000000000010
:1048A80000000000000000000000000043000000BD
:1048B80000000000000000000000000000000000F0
:1048C800000000000000000000000000430000009D
:1048D80000000000000000000000000000000000D0
:1048E800000000000000000000000000430000007D
:1048F80000000000000000000000000000000000B0
:10490800000000000000000000000000FD4300005F
:104918004943000000000000A5460000A34600002F
:104928004546000045460000454600004546000053
:104938004546000045460000454600004546000043
:1049480045460000FFFFFFFFFFFFFFFFFFFFFFFFE0
:10495800FFFF0000010041534349490000000000E7
:10496800000000000000000000000000000000003F
:1049780000000000000041534349490000000000C6
:10498800000000000000000000000000000000001F
:08499800000000000000000017
:04000003000022A136
:00000001FF
