:1000000018220020B5280000B1280000B128000007
:1000100000000000000000000000000000000000E0
:10002000000000000000000000000000B1280000F7
:100030000000000000000000B1280000B12800000E
:10004000B1280000B1280000B1280000B12800004C
:10005000B1280000B1280000B1280000B12800003C
:10006000B1280000B1280000B1280000B12800002C
:10007000B1280000B1280000B1280000B12800001C
:10008000B1280000B1280000B1280000B12800000C
:10009000B12800000000000000000000B1280000AE
:1000A000B128000000000000B1280000000000009E
:1000B0000000000010B5064C2378002B07D1054B3B
:1000C000002B02D0044800E000BF0123237010BDC4
:1000D000D40000200000000038610000084B10B57B
:1000E000002B03D00749084800E000BF0748036819
:1000F000002B00D110BD064B002BFBD09847F9E731
:1001000000000000D80000203861000038610000C5
:100110000000000001680722CB691A42FCD1704739
:10012000F0B5D6464F464646C0B58AB006000F0029
:10013000140031600800974B9847974A116A851C54
:100140000123AB400B43136209A9237B0B701430CE
:10015000C5B22800914B98472800914B9847207BC7
:100160000021904B98473B681C209B0705D50AB09F
:100170001CBC90469946A246F0BD3B681738DB0789
:10018000F5D414233B60336898461800814B984798
:100190000500802308AA137000235370012208A9C8
:1001A0008A70CB70E069276A002800D1AFE008AB05
:1001B0001870022308AA5370000CC0B211007A4BC9
:1001C0009847002F00D1A7E008AB1F70022308AAB0
:1001D00053703F0CF8B21100734B9847A38AF38019
:1001E000E38A3381237E8022002B04D16F4B9B78DE
:1001F0009B07DB0FDA01A16823690B431343242219
:10020000A25C002A02D08022D2051343A26A1343C3
:100210002C22A25C002A03D180229204914202D1B6
:100220008022120513432D22A25C002A02D08022D4
:10023000120413432E22A25C002A02D08022D20391
:1002400013434246126813434246136080235B0007
:10025000536028001430C0B2554B98470790FA23DA
:100260009B0022685A43914663689A46514DA847BD
:10027000009001914B465800A84702900391208EB0
:10028000A847049005914C4F4C4A4D4B009801995A
:10029000B84702000B0004980599B847494E002260
:1002A000494BB047049005914846A84702000B000F
:1002B00004980599B84702000B00444D0098019935
:1002C000A847029A039BB0470022414BA847029AD5
:1002D000039B404DA847404B9847050080239B0453
:1002E000A2689A421ED003004020FF2D00D93EE7AD
:1002F00000240020FF251D40240625430004FF2381
:100300001B04184005434346DD6000202FE7002111
:100310004046324B98474AE7012140462F4B9847C9
:10032000070051E7FA26B60053465E43009801994C
:1003300002000B00234CA0470090019130001D4BA0
:1003400098470022264BB84702000B0000980199FD
:10035000204CA04700221E4B1C4CA0471E4B984728
:10036000041E0CD0310007981E4B98470238001B22
:100370002B00FF2D0CD8FF28BCD94020F7E67100D8
:10038000481E079B9C466044164B98470138EFE790
:100390004020ECE60D220000000400405927000038
:1003A000CD26000049200000512800000020004117
:1003B0007527000095560000014B000095D626E8F1
:1003C0000B2E113E793E0000000024400150000039
:1003D0000000F03F994400002D56000095200000D9
:1003E0000000084079390000F8B504000768084E9D
:1003F000B04725682000B04783232B752B762B68E8
:10040000022293432B602000B04701233B60F8BDDC
:100410001501000003681A7E920707D502221A769A
:100420005B8B9B074120DB17184070475A8B5207A4
:1004300006D55968C02292020A435A601820F4E790
:100440000020F2E730B50268002301240225117E66
:1004500021420BD1117E294206D101339BB2018981
:100460009942F4D8122002E0002000E0002030BDC4
:1004700010B5046862688023DB0213436360616225
:10048000024B98470123237610BDC0464504000067
:10049000F0B5DE4657464E464546E0B583B0060009
:1004A000894605684C882B681B01DB0F9A464B7AFE
:1004B000002B2BD16B68584A13406B604B461B7A5C
:1004C000002B27D14B461B885B004A46527A920389
:1004D0001343012213436B623000504B9847019045
:1004E0005346002B03D04B465B88012B3BD06B68F7
:1004F000494A13406B60019B002B3AD0019803B02E
:100500003CBC90469946A246AB46F0BD897A444B26
:100510009847CFE74B461B885B004A46527A9203C6
:1005200013438022120213436B6230003B4B984707
:1005300001906B68384A13406B600028DED13000B0
:10054000384B984701900028D8D14B461B881B0A8E
:10055000782213435B004A46527A920301210A43F0
:1005600013436B62B8E76A688023DB0213436B6056
:10057000C1E730002B4B984701900028BED1013CC9
:10058000A4B28046284B9B4615E0012C20D03000B9
:10059000264B984743465F1CBFB22823EB5C4A4674
:1005A00052684146535430001C4B9847013CA4B25A
:1005B000002815D1B8465C4514D06B8B9B0627D517
:1005C000F37A002BE3D05346002BDED1002CDED192
:1005D0006A688023DB0213436B60013CA4B2EAE744
:1005E000B8460190B37A002B09D130000F4B9847E1
:1005F0002823EA5C4B465B6841465A547EE730004C
:100600000A4B98476A68C0239B0213436B60ECE770
:100610004123019372E7C046FFFFFBFF4504000042
:100620007104000015040000FFFF00001501000028
:10063000F0B5DE4657464E464546E0B583B0060067
:100640000F0005684C88324B98477B7A002B1DD1F0
:100650006B68304A13406B603B7A002B1BD03B88A1
:100660005B007A7A920313438022120213436B6277
:100670003000294B98470190002813D0019803B00F
:100680003CBC90469946A246AB46F0BDB97A3000D4
:10069000224B9847DCE73B885B007A7A920313434E
:1006A0006B62E5E730001E4B9847031E0190E5D1D1
:1006B000A046002420339946154B9B46164B9A467C
:1006C000444515D06B8B4A4613421DD03000D847A5
:1006D0007B681A5D2823EA543000D047002806D1F1
:1006E0006B8B01345B07EBD51E23019300E0019077
:1006F000B37A002BC2D03000054B98476A68C023FC
:100700009B0213436B60B9E741230193B6E7C046F0
:1007100015010000FFFFFBFF45040000710400000D
:100720001504000010B501238372C372014B984772
:1007300010BDC0469104000010B501238372C3723E
:10074000014B984710BDC04631060000F0B5DE46AB
:1007500057464E464546E0B591B005000C001600E0
:1007600029600800AD4B9847020023680520DB078D
:1007700006D511B03CBC90469946A246AB46F0BDAA
:10078000236817309B07F4D4A549086A971C0123F6
:10079000BB4003430B620FA92D27F35D0B7014328E
:1007A000D3B2029318009F4B984702989E4B9847EC
:1007B000F05D00219D4B9847F37A6B712423F35C25
:1007C000AB712523F35CEB71F37E2B72337F6B727D
:1007D0002B6898461800914B9847143000220E233E
:1007E00006A98C4663441A80328A02928023DB0178
:1007F0009A4200D19FE00FD9C023DB01029A9A42AE
:1008000000D193E080231B029A4200D001E1032330
:1008100006930023079308E080239B019A4200D0AF
:10082000F7E0102306930F3B079333689B46F3686A
:10083000049373699A46337E05932623F35C0393EE
:1008400073689946002B00D1A1E080235B05994590
:1008500000D185E0737E002B02D0B37E42469373B5
:100860002A68029FD369002BFCD10E3306AA944656
:1008700063441B88424693815B46049A1343524665
:1008800013434A4613431F43059B1B021F43039B0D
:100890005B071F432723F35C002B01D104331F4365
:1008A000737E9B02327F52021343727F1202134304
:1008B0002422B25C520413432522B25C1204134377
:1008C000B17AF27A114319433389FF2B00D182E0C8
:1008D00080225204174319432C23F35C002B03D1CD
:1008E000534B9B789B0701D580231F432A68D3690C
:1008F000002BFCD1434659602A68D369002BFCD1F8
:1009000043461F600EAB80221A7000225A70DA70C4
:100910009A70336B0A93736B0B93B36B0C93F36BFB
:1009200002930D9300270AAD424E63E0082306931D
:10093000073B079379E733689B46F3680493736931
:100940009A46337E05932623F35C03937368994696
:10095000002B18D080235B05994501D0002025E0AD
:100960002723F35C002B00D074E7336A1F00C0B26A
:10097000314B984701000E2206AB9C46624438007A
:100980002E4B984712E00823069300230793272352
:10099000F35C002B0ED0069B0093079B0E2206A94A
:1009A0008C466244B16A306A254FB847002800D0AF
:1009B000DFE64FE7336A1F00C0B21F4B98470100C4
:1009C000069B0093079B0E2206A8844662443800CB
:1009D0001B4FB847EAE7F37E002B00D17CE780236A
:1009E000DB041F4378E72000164B984707E00137E8
:1009F000042F0CD0F9B2BB0058590028F3D0431C87
:100A0000F5D00EA90870000CC0B2B047EFE7002087
:100A1000AFE6102306930023079306E70D2200009C
:100A20000004004059270000CD26000049200000A6
:100A30000020004151280000752700008B1F000096
:100A4000B51F000095200000C3791C22002B01D1A6
:100A5000100070470368187E173AC007F8D5DA69A6
:100A6000002AFCD1198502211A7E0A42FCD00022FC
:100A7000EEE782791C23002A01D118007047026832
:100A8000107E173B4007F8D5D369002BFCD1538B60
:100A9000DBB298061DD0980703D502235383183381
:100AA000EBE7580703D5042353831A33E5E7D80748
:100AB00003D5012353831233DFE7D80603D5102370
:100AC00053833233D9E79B0603D520235383213345
:100AD000D3E7138D0B800023CFE70000F0B5CE469F
:100AE000474680B583B0050001911720002A04D144
:100AF00003B00CBC90469946F0BDEB790530002B55
:100B0000F6D02C68E369002BFCD1013A93B29946E8
:100B1000002601271F4B984611E0731C9BB2019AD7
:100B2000915D6A79012A17D089B21E0028001A4BFC
:100B300098474B46013B9BB29946434513D0237ED1
:100B40003B42EAD1134B227E3A42E6D1012B19D027
:100B5000013B002BF7D1E0E70236B6B2019AD35C35
:100B60001B021943E2E7237E9B070DD4094B0221A8
:100B7000227E0A420AD1012B0AD0013B002BF7D179
:100B80000020B5E71220B3E70020B1E70020AFE76F
:100B90001220ADE7FFFF0000490A000010B5040075
:100BA0000420034B984704700023437010BDC046D7
:100BB000A157000010B504000068002801D0024BC6
:100BC00098470023236010BDB5570000F0B5D64606
:100BD0004F464646C0B59446002821D089468846EF
:100BE00080440023134816E06D00EDB2013E002E54
:100BF0000CD0DF0B5B009BB22C000C40621E9441BA
:100C0000E4B2BC42F0D043409BB2EDE701229246F1
:100C1000D144C14505D04A46117808260125E8E7A8
:100C20000023624613701B0A53701CBC9046994601
:100C3000A246F0BD0580FFFF10B5411C4078023888
:100C4000C0B20A18014B984710BDC046CD0B00003A
:100C500010B540238B70CB78DB0609D407234B708B
:100C60004B228333CA520800044B9847002010BD22
:100C70000A234B7004228033CA52F4E7390C000077
:100C800010B517238B70103B4B7004228333CA526C
:100C90000800024B9847002010BDC046390C0000E8
:100CA00010B51B238B70143B4B7023228333CA5225
:100CB0000800024B9847002010BDC046390C0000C8
:100CC00010B502238B7005334B70CB787F2B07D880
:100CD00007228A23CA520800034B9847002010BD00
:100CE00023228A23CA52F6E7390C000010B54723A5
:100CF0008B70CC78403B23409B00174CE3589F46B9
:100D000004228A23CA52833B4B700800134B984736
:100D1000002010BD0378012B06D004228A23CA527A
:100D20008B8807334B70F0E723228933CA52F7E7E9
:100D300023228A23CA528B8807334B70E5E7662249
:100D40008A23CA52833B4B70DFE704208A23C852B0
:100D500007324A70D9E7C0469C590000390C0000A0
:100D600070B582B005000478023CE4B201AE3200F6
:100D700001002000084B984732782B5DE5209A420D
:100D800001D002B070BD2C1901AB5A7863789A4239
:100D9000F7D10020F5E7C046CD0B000010B582B0BA
:100DA00004001B4B1B680193042201A9194B9847AF
:100DB0000023002802D02278042A02D0180002B0B2
:100DC00010BD6278072A1FD0D3B2072B0CD90F2A87
:100DD0001CD0D3B20F2B11D9F323112AEED0D2B2EB
:100DE0001F3BFF2AEAD007E0032A0BD0D623052AAF
:100DF000E4D0053B012AE1D0E123DFE7FA23082A0A
:100E0000DCD0F9E7D223D9E7D723D7E7F423D5E716
:100E1000BC590000C957000070B5051E17D0082046
:100E20000C4B9847040068780B4B984720602800CB
:100E30000A4B984760602368002B03D0002801D03C
:100E4000200070BD2000064B98470024F8E70024DE
:100E5000F6E7C046A15700009D0B0000F50F00000B
:100E6000B557000070B505000468002C08D02000BC
:100E7000054B9847201D054B98472868044B984719
:100E800000232B6070BDC046B50B00006D0F000045
:100E9000B5570000F0B5C64600B582B007000E0099
:100EA00048681D4B9847041E07D070681B4B984735
:100EB000200002B004BC9046F0BD7A78390070681A
:100EC000174B9847041EF0D10120164B9847164C3B
:100ED000BB1D0193154B9846124D3A008A32019979
:100EE0007068C047002804D00220A847013C002CAD
:100EF000F3D18A23FC5A032C04D860426041E630C7
:100F00000400D2E701980A4B9847041ECDD10198FE
:100F1000084B98470400C8E7490F0000510F000034
:100F2000390F0000611E0000E9030000410F0000BE
:100F3000610D00009D0D000010B50369984710BDBC
:100F400010B54369984710BD10B58369984710BD27
:100F500010B5C369984704000120024B9847200050
:100F600010BDC046611E00004068704710B5040007
:100F70000368002B06D0596A1878044B98472068FC
:100F8000034B98470023236010BDC0469118000012
:100F9000B557000070B504000D004068094B984734
:100FA0002B68A3606B68E360AB682361EB686361E7
:100FB0002B69A361AB6923626B69E3612B6A63628E
:100FC000002070BD3D18000010B58AB0040001A9D2
:100FD000074B9847616801A8A3689847002801D08B
:100FE0000AB010BD099B6362E36820009847F7E7E9
:100FF000950F000070B505002820084B98470400A5
:101000002B7803704560064B9847002801D12000DB
:1010100070BD2000034B98470024F8E7A15700005B
:10102000C90F0000B557000010B50248024B9847A1
:10103000002010BDF0000020650E000010B582B049
:101040000400184B1B68002B01D0174B9847200059
:10105000164B9847134B186000281CD04368002B90
:101060001BD00368002B1AD062780020042A01D01C
:1010700002B010BD0133033A0092123200210C4C31
:10108000A0470028F4D1074B1B681A685378072142
:101090008B435370ECE7E120EAE7E120E8E7E12049
:1010A000E6E7C046F000002029100000190E0000FD
:1010B0004914000010B5044B1B68E120002B02D03E
:1010C0005868024B984710BDF0000020490F0000FF
:1010D00010B5029C002C08D00324204007D0022821
:1010E0000DD0012803D0E22012E0E22010E0D2006F
:1010F000072003401A43029B1A80002008E0C90021
:10110000072003400B4312021A43029B1A8000205F
:1011100010BD0000002A3ED0204B1B685B685B6856
:101120005B78012B07D001281DD0002817D002289A
:101130001DD0E22030E0012809D0002803D0022889
:1011400009D0E22028E058231360002024E0402347
:101150001360002020E02023136000201CE0802387
:101160001360002018E040231360002014E00729DA
:1011700008D908290AD0E2200F290DD84823136086
:10118000002009E024231360002005E0D0235B0049
:101190001360002000E0E2207047C046F00000200D
:1011A00070B5A4B014001D00154B1B681E6801AB80
:1011B000D8709980002A05D0032221000A206844B3
:1011C000104B984701A930000F4B9847041E02D0DE
:1011D000200024B070BD0A4B196801A80B4B98473A
:1011E000041EF5D1002DF3D001AB9A79042AEFD972
:1011F000033A0B2169442800024B9847E8E7C046B0
:10120000F0000020E7570000510C0000950E000090
:1012100010B50B00002201000420014CA04710BDB6
:10122000A1110000F0B5A5B007000E000C4B1B6823
:101230001D6801AC8C22002120000A4B9847E77002
:10124000A68021002800084B9847002801D025B02F
:10125000F0BD034B196801A8044B9847F7E7C04657
:10126000F0000020F9570000810C0000950E0000EE
:1012700010B500218020014B984710BD25120000B9
:1012800010B500218120014B984710BD25120000A8
:1012900030B5A5B00500154B1B68186801A90023DF
:1012A000CB708B80124B9847041E02D0200025B0D3
:1012B00030BD0E4B196801A80E4B9847041EF5D19E
:1012C00001AB9A798A215B5A934201D2E624EDE779
:1012D000232A01D0E624E9E7002DE7D0033A7F393D
:1012E00069442800044B9847E0E7C046F00000201E
:1012F000A10C0000950E0000E7570000F0B5A9B062
:1013000003902EA880C80578002F0AD022480068D4
:101310000668042D16D0E224202D04D0200029B028
:10132000F0BDE224FAE70A2002ACA4466044009033
:1013300003981A4CA047041EF0D18023039A1A4345
:10134000039209E00A2002ACA4466044009003988E
:10135000124CA047041EE1D105A96B461B7BCB7044
:101360000A2302AA944663441B888B8030000C4BEE
:101370009847041ED2D1084B196805A8094B984715
:10138000041ECBD12A00132102AB9C4661443800D5
:10139000054B9847C2E7C046F0000020D11000007E
:1013A000C10C0000950E0000E757000070B58AB030
:1013B0000500E22400280BD02023019302AB009308
:1013C0000023002200210020084CA047041E02D068
:1013D00020000AB070BD042202A92800044EB047C4
:1013E000281D052204A9B047F2E7C046FD120000FF
:1013F000E757000070B584B005000C00E22000291A
:1014000017D00423019303AB00930523022200218C
:1014100000200C4EB04700280BD1002D03D0012D29
:1014200009D0E22005E003ABDB78553B5A1E93411F
:10143000237004B070BD03AB9B78553B5A1E93419B
:101440002370F6E7FD120000F0B5DE4657464E4623
:101450004546E0B591B005000291170003930023C3
:101460000F93E224022807D9200011B03CBC90461B
:101470009946A246AB46F0BD02281FD000241A9B15
:10148000002BF1D0E234039B002BEDD00FAA029980
:1014900028002E4B9847041EE6D11A9BDB19E23434
:1014A0000F9A9342E0D87B09984620239A4600235E
:1014B0000026A9461D00059757461EE00F29D3D8E0
:1014C000DCE743465B010F9AD31A1F2B17D8059B05
:1014D0009B199B0807251D401C3F10E0039B981992
:1014E00007AB9C4661442200194B98473619202FC0
:1014F00024D001351A9BB34224D9202FE1D0EBB27E
:10150000424669460A740A7C019707A9009102992C
:101510004846104CA0470490002815D14346DB00F4
:101520005B199B0000210598984200D9C11A7B1ACB
:101530001A9A941B9C42D1D91C00CFE701239C46E8
:10154000E044D7E7049C8FE7049C8DE71511000069
:10155000E7570000FD120000F0B5A5B00C00110027
:101560001E002B4B1B681F6807230340033B012B06
:1015700040D9002C01D0002A36D0002E36D0E225EA
:101580002A9B002B0ED001ABD8709C8022000A2031
:101590006844204B9847220001A938001E4B984709
:1015A000051E02D0280025B0F0BD194B196801A80E
:1015B0001A4B9847051EF5D1002EF3D08A2301AAB5
:1015C000D35A042BEED99279D11E2A9B1B889942BB
:1015D00001DDED25E6E78AB22A9B1A800B216944DA
:1015E00030000C4B9847DDE7E225DBE701ABD87014
:1015F0009C80CBE7002E03D101ABD8709C80CAE75A
:10160000E2252A9B002BCDD001ABD8709C80C2E78D
:10161000F0000020E7570000ED0C0000950E0000E0
:1016200010B582B000230093002200210020024C5C
:10163000A04702B010BDC0465915000010B582B0D9
:1016400002000023009340210120024CA04702B079
:1016500010BDC0465915000010B584B003000E241B
:101660006C442020208000941E38024CA04704B017
:1016700010BDC0465915000010B588220021024B4C
:101680009847024B984710BDF957000021160000FB
:10169000F0B5DE4657464E464546E0B583B00600F7
:1016A00000911400406840273F1A974200D9170064
:1016B000083030183A000099214B98477368E318B6
:1016C0003F2B0AD8736000230193019803B03CBC00
:1016D00090469946A246AB46F0BD08239C46B444CA
:1016E000E1466046174B984701900028EDD1E31B77
:1016F00098469B099A460CD0009BDC190025114B9B
:101700009B462000D847002818D101354034AA450F
:10171000F7D1534601339B013268944663443360EA
:101720003F2342461A40726041469943C919009BC3
:101730009C4661444846024B9847C6E70190C4E77F
:10174000E75700003D160000F0B585B004000D001D
:10175000274B1B685B685B685B78012B07D0020036
:10176000083281882800234B984705B0F0BD4068B7
:101770002368C6182660F60009235B421B1A3F2720
:101780001F40431C6360231880221A723A1D0930DF
:1017900020180021184B984763689C466744E3195A
:1017A000320E1A73320C5A73320A9A730837676012
:1017B000DE730E236B4420221A802200083200932D
:1017C0002B00402101200D4EB0470028CDD1636889
:1017D000402BCAD90E236B4420221A8022004832A3
:1017E00000932B0040210130044CA047BDE7C046C8
:1017F000F000002059160000F957000059150000AC
:1018000070B5A2B004000D0016006846084B98475A
:10181000002801D022B070BD2A0021006846054B87
:1018200098470028F6D131006846034B9847F1E706
:101830007916000091160000491700000378F02087
:10184000002B00D070470A4B0B600A4B4B600A4BD1
:10185000CB600A4B8B600A4B8B610A4B0B610A4BC6
:101860004B610A4BCB6100230B620020EAE7C046C4
:10187000B51800004D1A0000A11A0000511A00000E
:10188000551D00000D1C0000051D0000A51D0000D9
:1018900010B5002801D0E12010BD0800014B984789
:1018A000FAE7C046A51D000001680722CB691A426D
:1018B000FCD17047F0B5C64600B505000E004C7966
:1018C000514B1B68002B07D1504A00211160516019
:1018D0009160D1601161516101334B4A1360F02076
:1018E000052C02D904BC9046F0BDA300474A9B5882
:1018F000002B08D0DA680132DA60A400434BE358C9
:101900002B620020EEE7DC38414B98478046A3006D
:101910003E4A98500123C3603E4B64221A603E4AFF
:101920005A6000229A601A731A768021890319611D
:1019300001214942D982DA611A6225315A549A62E8
:1019400008315A5401315A5401315A54D7321A8647
:10195000012C0FD02F4FFA235B00BB82B068FA2115
:1019600089002E4B98473860052C1CD8A3002C4AC0
:10197000D3589F461F002B4BFB612B4B3B62FA2336
:101980005B00BB82B068FA218900244B984738601D
:10199000204A26494046264B984704E01D4A2549DF
:1019A0004046234B9847194BA200D1580C61D75899
:1019B0003E683800204B9847336802221343336057
:1019C00000231021728B0A4297D10133FA88934287
:1019D000F8D31023738390E70E4A18494046144BFE
:1019E0009847E0E70B4A16494046114B9847DAE71B
:1019F000084A144940460E4B9847D4E7054A124915
:101A000040460B4B9847CEE728010020E401002018
:101A1000A1570000F4000020480D000079390000B3
:101A2000C05900000200100002001100000C00422A
:101A30002101000000080042A91800000010004227
:101A40000014004200180042001C004200207047B1
:101A500030B585B00D0014000E4B9847437901A9AD
:101A6000027952080A804D6000220A724A728A7214
:101A700003322A7001344C809B00074A9858074B68
:101A800098470300F0205A1E93415B42184005B06E
:101A900030BDC046690F0000E40100203907000096
:101AA000F0B585B00C001600154B98474579816A52
:101AB00001AB027952081A8032885A8002940022BF
:101AC0001A725A729A724C1E002916DD0D4F0E4E74
:101AD000AB00D85901A9B047013C08D30028F7D181
:101AE00002980A4B9847031E04D0F02302E0F0232B
:101AF0000028F5D0180005B0F0BDF023FAE7C04685
:101B0000690F0000E401002025070000610D0000BE
:101B100070B50E002F4B984744792F4D2F4BEB8219
:101B2000FA21890030002E4B98472860A2002D4BE7
:101B3000D05805682C4B984783232B752B762B6840
:101B4000022293432B60052C09D8A300274AD358BF
:101B50009F46244B1868204A2549264B9847A400E5
:101B6000204BE5582C6828001F4B98472368022219
:101B70001343236000231021628B0A4205D10133F5
:101B8000EA889342F8D31023638370BD154B5868DD
:101B9000114A1949174B9847E1E7124B98680E4ACA
:101BA0001649144B9847DAE70E4BD8680A4A14498D
:101BB000104B9847D3E70B4B1869074A11490D4B57
:101BC0009847CCE7074B5869034A0F49094B984798
:101BD000C5E7C046690F0000F40000201027000090
:101BE00079390000E4010020A9180000D85900004C
:101BF0000008004221010000000C004200100042D9
:101C00000014004200180042001C0042F0B5D64605
:101C10004F464646C0B588B004000190304B984707
:101C200081464779866A836898462E4B9B6906935E
:101C30002D4B984503D0190020002C4B984703AC3E
:101C4000002200232280628007AD04952372637214
:101C5000A372BB00264A98582100264B98474B4652
:101C6000988C254B98474B461B795B0823800423AF
:101C700063806560751E002E2CDD1D4B9A461F4E3D
:101C8000BB005246985803A9B0470400013D0DD34C
:101C90000028F5D1144B98450BD1042206A907A8BA
:101CA000174B9847002813D0F02009E00E4B9845B9
:101CB00003D0414601980D4B9847F020002CECD002
:101CC00008B01CBC90469946A246F0BD0124F0E73E
:101CD0000020F5E7044B9845F8D1F020F0E7C04626
:101CE000690F0000F0590000A0860100111B0000E0
:101CF000E401002039070000F91D0000250700005D
:101D0000C957000000B585B00F4B98474379027959
:101D1000520869460A8001224A8003A901910022E3
:101D2000684602724272827202320A709B00074A4F
:101D300098586946064B98470300F0205A1E934175
:101D40005B42184005B000BD690F0000E4010020AF
:101D50003907000000B585B00F4B984743790279E9
:101D6000520869460A8001224A8003A90191002293
:101D7000684602724272827201220A709B00074A10
:101D800098586946064B98470300F0205A1E934125
:101D90005B42184005B000BD690F0000E40100205F
:101DA0003907000070B504000F4A1368013B136047
:101DB000002804D0C368013BC360002B01DD002074
:101DC00070BD03699B00094A9B58002BF7D0084B54
:101DD0009847064D23699B005859064B984723693D
:101DE0009B0000225A51EAE728010020E40100206C
:101DF000E9030000B557000010B5041E0FD1002004
:101E0000114B9847020000231048002180185941C7
:101E10000F4A00230F4CA0470F4B984710BD0020DE
:101E2000094B984702000023200000210B4CA047DB
:101E3000064A002380185941054A0023054CA04753
:101E4000054B9847EAE7C04641260000BFCF6A002D
:101E5000C0CF6A00653C000001000020A53C0000E6
:101E600010B5041E0FD10020114B9847020000232B
:101E700010480021801859410F4A00230F4CA047F9
:101E80000F4B984710BD0020094B984702000023D4
:101E9000200000210B4CA0470B4A00238018594119
:101EA0000A4A0023054CA047054B9847EAE7C0467D
:101EB00041260000BFCF6A00C0CF6A00653C000029
:101EC00001000020A53C0000571B0000581B00002B
:101ED000F0B5DE4657464E464546E0B587B08046EB
:101EE000049116001F000022002300218B463F248E
:101EF00001202100009601975C4603944446059416
:101F000013E02024641A0500E540A84614E0009C74
:101F1000019D121BAB415C464D462C43A346039CDE
:101F200045462C430394013925D3202464420C19DF
:101F3000E7D40500A540A84604008C40A1469218AD
:101F40005B4114001D00059E4F463E40B446049E72
:101F500047463E40B246664657463E4303D00600DB
:101F6000264332002B00009C019D9D42DBD8CED140
:101F70009442D8D8CBE7039B5846190007B03CBC25
:101F800090469946A246AB46F0BD10B5490840239D
:101F90000024814202D2180010BD1C00091A631CE3
:101FA0009BB28842F9D94023FF2CF4D81480002337
:101FB000F1E70000F0B583B00F00160008AA117811
:101FC00004004C434022BC4202D9100003B0F0BDD3
:101FD000002B14D1020008000021194CA047010079
:101FE0003A0000230020174CA04700220123121AB8
:101FF0008B41120C1B041A4332800022E5E70022B9
:10200000012BF9D10A00002300210D4CA04702004A
:102010000B0000920193380000210A4CA0470500F4
:1020200080239B0140229842CFD8790FF800009A74
:10203000019BA047EA00821AD2B252032A43DBE78F
:10204000A53C0000D11E000010B582B004000E4B6C
:102050001B78002B07D0002905D10B4B5B788342FE
:1020600010D01D200CE001A90C701320074B9847DD
:102070001320074B9847044B5C7001221A70002014
:1020800002B010BD0020FBE72C0100205927000002
:10209000CD260000404B984231D00AD93F4B9842A0
:1020A0004DD03F4B98425AD03E4B984237D00020FB
:1020B00070473D4B98420CD03C4B9842F7D10129D8
:1020C00017D000295DD0022915D0032915D0002092
:1020D000EEE7012907D0002951D0022905D00329B4
:1020E00005D00020E4E73248E2E73248E0E7324832
:1020F000DEE73248DCE73248DAE73248D8E7012940
:1021000007D000293FD0022905D0032905D000209F
:10211000CEE72D48CCE72D48CAE72D48C8E701296E
:1021200007D0002931D0022905D0032905D000208D
:10213000BEE72848BCE72848BAE72848B8E701299D
:1021400007D0002923D0022905D0032905D000207B
:10215000AEE72348ACE72348AAE72348A8E70129CC
:1021600007D0002915D0022905D0032905D0002069
:102170009EE71E489CE71E489AE71E4898E71E48BF
:1021800096E7032094E71D4892E71D4890E71D4815
:102190008EE71D488CE7C046001000420018004240
:1021A000001C00420014004200080042000C0042E3
:1021B0000300050003000600030007000300010000
:1021C00003001E0003001F0002000D0002000E00AD
:1021D00002000F00030011000300120003001300AF
:1021E00005003F0005003E000500520003001700F7
:1021F00003001800030019000300040002000C0093
:1022000003001000050053000300160030B587B02E
:102210000B4B6A4632CB32C232CB32C2009B834276
:102220000BD001239A0069465258824206D00133EE
:10223000062BF7D1002007B030BD0023D8B2FAE753
:102240000C5A00000C4B1B68002B06D1EFF31083D7
:10225000002B07D00022094B1A70074A136801337C
:102260001360704772B6BFF35F8F0022044B1A7081
:102270000132024B1A70F0E73001002034010020D7
:102280006C000020084B1A68013A1A601B68002B8A
:1022900009D1064B1B78002B05D00122044B1A7084
:1022A000BFF35F8F62B67047300100203401002019
:1022B0006C000020F0B583B001AC012565700027EB
:1022C000A770257021001320064EB047802212030C
:1022D000054B9A612770657021001C20B04703B040
:1022E000F0BDC046ED2200000044004100B583B0BF
:1022F00001AB80221A700A785A704A789A708A78EC
:10230000DA701900014B984703B000BD5128000056
:1023100010B5082803D880001C4B1B589F4600208E
:1023200032E01B4B18692FE01A4B1B6A9B059B0F71
:102330001948D84028E0164B586925E0144B1B6813
:1023400000209B0720D513491022CB681A42FCD0ED
:102350000F4B1A6824231340042B01D00F4813E0BD
:1023600000200F4B98470A4B9B681B041B0C5843DB
:102370000AE05023074AD35C00205B0704D5044BD6
:10238000D86801E08020000210BDC046245A000039
:10239000380100200008004000127A00006CDC02C6
:1023A0007527000070B50C490B6A04788578407871
:1023B0000122104080014026B34303432A40D2014A
:1023C0008020834313430322224012020348034028
:1023D00013430B6270BDC04600080040FFFCFFFFC6
:1023E000082803D88000254B1B589F46172044E03F
:1023F000234A136A02210B43136200203DE0204A66
:10240000936902210B439361002036E01C4A138A32
:1024100002210B43138200202FE0194A938A0221E4
:102420000B439382002028E016490B6802221343D5
:102430000B60134B9A8419000E32CB681A42FCD001
:10244000104A91680E4BD96252689A6200229A84AF
:1024500019001032CB681A42FCD00A4B1B689BB2A1
:10246000074A9384002008E0054944228B5C02203F
:1024700003438B54002000E000207047485A0000BE
:10248000000800403801002030B585B0C222D200DB
:102490001A4B9A601A4A53681E218B4353600123DA
:1024A0006A4613700024174DE0B26946A84701340C
:1024B000252CF9D103A800244470012585700470EF
:1024C000114B98470620114B9847114B9847114BD9
:1024D0001C725C729C72DC7201956B465C70062308
:1024E0006A46137014725472694600200A4B98476A
:1024F00000200A4B984705B030BDC0460008004098
:102500000040004159270000A5230000E1230000FE
:10251000212500000004004045250000FD250000A5
:10252000064A936908210B4393610122044B1A70F8
:1025300019000B781342FCD17047C04600040040DC
:10254000000C004070B5060004000D782D02054314
:102550004B78002B02D08023DB021D434B7A002BEB
:1025600002D080231B031D434868012810D9431E55
:10257000184234D1022830D90223002201325B00F4
:102580009842FBD812023243140080235B031D43A0
:102590000B7A002B02D080239B031D43134A5378F0
:1025A0005BB2002BFBDB124B9847124B1E700F4A9D
:1025B00053785BB2002BFBDB0C4B9C601A0053780A
:1025C0005BB2002BFBDB094A5368802149020B40B8
:1025D0001D435560084B984770BD0022D2E70402A6
:1025E000344380239B021D43D2E7C046000C0040C9
:1025F00045220000080C00408522000010B50400B0
:102600000B4A53785BB2002BFBDB0A4B98470A4B13
:102610001C70074A53785BB2002BFBDB044A5168FD
:1026200080235B020B435360044B984710BDC046A8
:10263000000C004045220000040C004085220000F0
:1026400070B504001A4A53785BB2002BFBDB194BC0
:102650009847194B1C70164A53785BB2002BFBDB72
:10266000134E7068C004C00E144B98470500124BFF
:102670001C707668F602F60F114B1C700C4A5378EA
:102680005BB2002BFBDB0A4B9C682402240C0D4B35
:102690009847002E07D1012C07D9210028000A4BAA
:1026A0009847050001E00134E540280070BDC046B0
:1026B000000C004045220000040C004011230000E3
:1026C000080C0040852200007939000010B5040094
:1026D000064B9847064B1C70064A53888021C90157
:1026E0000B435380044B984710BDC0464522000061
:1026F000020C0040000C00408522000010B50400D0
:102700000F4B98470F4B1C700F4A53881B05180F2F
:1027100053880E490B40538053880D490B4053801A
:1027200011008022D2014B881342FCD106494A880D
:1027300003020648024013434B80064B984710BDE6
:1027400045220000020C0040000C0040FFF0FFFF9B
:10275000FFBFFFFF8522000010B50C782402044360
:10276000024B9847A4B2024B5C8010BDFD260000CE
:10277000000C004010B50400064B9847064B1C7037
:10278000064B5C882405240F054B98472000054B19
:10279000984710BD45220000020C0040000C00408C
:1027A000852200004126000030B5D378002B35D1BA
:1027B0001378802B29D01B0680246402234354788D
:1027C0000225AC4306D19478002C20D18024A402A9
:1027D000234341605478013C012C1CD90D042D0C7D
:1027E000A024E4052C431C4384620D0CD024240651
:1027F0002C431C438462D478002C22D15B031CD56B
:102800009378012B1ED0416117E00023D7E7C02445
:10281000E4022343DDE70D4C2340DFE741600C0475
:10282000240CA023DB05234383620C0CD0231B065E
:1028300023438362D378002B03D15378013B012BD0
:1028400002D930BD8161F8E78160FAE7FFFFFBFF45
:1028500010B50A00C1090023002904D14309DB0196
:1028600005498C4663441F24204001218140180003
:10287000024B984710BDC04600440041A927000004
:102880007047000010B5054B9847054B9847054B1E
:102890009847054B9847054B984710BD8924000081
:1028A000B522000081280000812800008128000056
:1028B000FEE70000F8B52A4A2A4B9A4211D01A00C6
:1028C000294B9A420DD2294A03339B1A9B080133A4
:1028D0009B000022234822498C58845004329A429B
:1028E000FAD1234A234B9A420AD2D34321495B1897
:1028F00003218B4304339B18002102C29342FCD175
:102900001D4AFF211D4B8B439360FD3990235B00D3
:102910001B4AD1501B4AD3780325AB4302242343DF
:10292000D370D3780C27BB4308263343D370164BA0
:10293000987B30229043202210439873997BB943AF
:10294000314399739A7BAA4322439A730F4A53687F
:1029500080210B4353600E4B98470E4B9847FEE780
:102960003861000000000020D40000200400002096
:10297000D40000201802002000ED00E0000000005C
:1029800000700041005000410048004100400041FB
:10299000595700005D3900000300064A1268002AFA
:1029A00004D0044A1068C318136070470249014AF2
:1029B0001160F6E7500100201822002010B5010038
:1029C0000020094B98470123002801D1180010BDB1
:1029D00080221203054B5A61162205490548064B11
:1029E00098470023F2E7C04611120000004400415E
:1029F0006C5A0000FC010020DD0A000000B583B025
:102A000001236A46D3716A46911D0B700020204B4A
:102A1000984700281CD16B4606331B78002B21D029
:102A200014221C491C481D4B98476B46D91D012098
:102A3000174B984700281BD16B4607331B78002B98
:102A400020D1162216491448144B984703B000BDF4
:102A500080221203134B5A61162213490E480F4B62
:102A60009847E2E7162211490B480C4B9847DCE7E0
:102A7000802212030B4B5A6116220B490648074B62
:102A80009847E3E714220A490348044B9847DDE7D7
:102A9000F5130000885A0000FC010020DD0A000048
:102AA000C85A0000004400416C5A00009C5A0000C3
:102AB000B45A000070B5164D102216492800164C65
:102AC000A047102215492800A047154B9847012818
:102AD00002D002280ED070BD124B98470028FAD0C1
:102AE00080221203104B5A611622104908480A4BE3
:102AF0009847F0E70E4B98470028ECD0802212034D
:102B0000094B5A61162209490148034B9847E2E7ED
:102B1000FC010020E05A0000DD0A0000F05A00002D
:102B20006D2D000071120000004400416C5A00003D
:102B30008112000000B589B02022002168460B4BAD
:102B4000984768460A4B9847002805D120216846D7
:102B5000084B984709B000BD80221203064B5A610A
:102B6000162206490648074B9847F3E7F957000035
:102B700091120000E52C0000004400416C5A000056
:102B8000FC010020DD0A000000B585B001A80A4B59
:102B90009847002805D1092101A8084B984705B09E
:102BA00000BD80221203064B5A61162205490648D1
:102BB000064B9847F3E7C046AD130000E52C000034
:102BC000004400416C5A0000FC010020DD0A0000B6
:102BD00030B589B004000D002022002168460C4B5E
:102BE00098476A46290020000A4B9847002805D1DB
:102BF00020216846084B984709B030BD8022120357
:102C0000064B5A61162206490648074B9847F3E7D8
:102C1000F957000001180000E52C000000440041B5
:102C20006C5A0000FC010020DD0A000030B591B0B4
:102C30008023DB05009300230193FF2269460A816C
:102C400000228B72CB72012124206C46215401306A
:102C5000215425316354013163540A93053163547F
:102C60000131635405932382E376227622776276DC
:102C70001323A3766277E1235B02089380235B032F
:102C800003930D4B0C930D4B0D9301235B420E935D
:102C90000F930B4D0B4C6A460B492800A0470028A8
:102CA000F9D1074B1A68D369002BFCD113680221B4
:102CB0000B43136011B030BD030004000300050096
:102CC000FC0100204D0700000008004210B50A007A
:102CD00001000248024B984710BDC046FC0100208D
:102CE000DD0A0000F8B5CE46474680B506000D1E49
:102CF00034DD00240F2398461A4B994612E03731F1
:102D00001948C84719E037311748164B98471DE056
:102D10000A211548134FB8470D211348B84701340D
:102D2000AC421BDA2700315D0909434619400929E5
:102D3000E5DC30310C480B4B9847F15D43461940B8
:102D40000929E0DC30310848064B98476B1EA34246
:102D5000DEDD3A210448034B9847E0E70CBC90467F
:102D60009946F8BD490A0000FC01002070B582B008
:102D70006B469C1D074D084E21002800B0470028D7
:102D8000FAD120780300313B082BF5D83038C0B297
:102D900002B070BDFC010020730A0000F0B583B0E2
:102DA0000500002907D000230020E8540133DBB2DE
:102DB0009AB28A42F9D301AB00221A705A70234E9C
:102DC000234F09E0FF2319402048224B984701A9CF
:102DD0000C702800204B98476B46991C3000B84770
:102DE0000028F9D16B465988CCB22300413B192BFE
:102DF000E8D92300613B192B11D92300303B092B63
:102E000018D90A2C01D00D2CE6D1104D0A2128002A
:102E1000104CA0470D212800A04703B0F0BDFF23B0
:102E200019400A480B4B984701A90C7028000A4B1F
:102E30009847D1E7FF2319400448064B984701A95A
:102E40000C702800044B9847C6E7C046FC010020E0
:102E5000730A0000490A00007D59000070B5054D55
:102E6000042205492800054CA047062204492800F1
:102E7000A04770BDFC010020005B0000DD0A0000DF
:102E8000085B0000F0B5DE4657464E464546E0B5C5
:102E90008DB0040002AD282200212800974B9847EE
:102EA000974B9847974B2A0043CB43C243CB43C22F
:102EB00043CB43C2196811601B7913712821280084
:102EC000914EB047914B2A0083CB83C283CB83C200
:102ED00083CB83C2196811601B79137128212800E4
:102EE000B047231D082B00D82AE105212000884B7C
:102EF00098470400C5170020864B9A469847864B92
:102F000099460094220001952B000021C847834B6D
:102F10000024C0186141824B9846824A0023C04772
:102F2000814B9847764B9B46984702AC754D2300E2
:102F30002A0043CA43C343CA43C343CA43C31168B5
:102F4000196012791A71282120006F4EB047774B13
:102F5000220083CB83C283CB83C283CB83C2196815
:102F600011601B79137128212000B0470020D04741
:102F7000009A019B0021C847684A002380185941E4
:102F8000684A0023C047684B9847D84723002A0067
:102F900083CA83C383CA83C383CA83C31168196086
:102FA00012791A7128212000B047614B220083CB8F
:102FB00083C283CB83C283CB83C2196811601B7920
:102FC000137128212000B0470020D047009A019BB0
:102FD0000021C847514A002380185941514A002313
:102FE000C047514B9847D84723002A0083CA83C360
:102FF00083CA83C383CA83C31168196012791A71A3
:1030000028212000B0474B4B220083CB83C283CBC7
:1030100083C283CB83C2196811601B791371282185
:103020002000B0470020D047009A019B0021C847EC
:103030003A4A0023801859413A4A0023C0473A4B84
:103040009847D84723002A0083CA83C383CA83C30F
:1030500083CA83C31168196012791A71282120006C
:10306000B047354B220083CB83C283CB83C283CB53
:1030700083C2196811601B79137128212000B047A1
:103080000020D047009A019B0021C847234A002313
:1030900080185941234A0023C04723498847D8470D
:1030A000230083CD83C383CD83C383CD83C32968AA
:1030B00019602A791A7128212000B0471F4B22007D
:1030C00083CB83C283CB83C283CB83C21968116055
:1030D0001B79137128212000B0470020D047009AA7
:1030E000019B0021C8470D4B0024C01861410D4AC7
:1030F0000023C0470C4B984710E1C046F957000029
:103100005D2E0000105B0000CD2C00003C5B000039
:103110008D3A000041260000A53C0000571B00002E
:10312000653C0000581B000001000020685B0000A7
:10313000945B0000C05B0000EC5B0000185C0000CA
:1031400000207A4B994698470200002378480021D6
:1031500080185941774B9846774A0023C047774FEC
:10316000B847774B9A46984702AC764B9B4623006C
:103170005A4643CA43C343CA43C343CA43C31168FD
:10318000196012791A71282120006F4EB0476F4BD9
:10319000220023CB23C223CB23C223CB23C2196813
:1031A00011601B79137128212000B0470020C84707
:1031B000020000235E480021801859415E4A002326
:1031C000C047B847D04723005A4623CA23C323CA5F
:1031D00023C323CA23C31168196012791A712821E5
:1031E0002000B0475A4B220023CB23C223CB23C25B
:1031F00023CB23C2196811601B7913712821200089
:10320000B0470020C8470200002349480021801829
:103210005941494A0023C047B847D04723005A467E
:1032200023CA23C323CA23C323CA23C31168196033
:1032300012791A7128212000B047464B220023CB77
:1032400023C223CB23C223CB23C2196811601B796D
:10325000137128212000B0470020C8470200002336
:103260003348002180185941334A0023C047B847EA
:10327000D04723005A4623CA23C323CA23C323CAE1
:1032800023C31168196012791A7128212000B047F0
:10329000314B220023CB23C223CB23C223CB23C217
:1032A000196811601B79137128212000B047002094
:1032B000C847020000231E480021801859411E4AB9
:1032C0000023C047B847D04723005D4607CD07C35A
:1032D00007CD07C307CD07C32A681A602A791A7178
:1032E00028212000B0471D4B220023CB23C223CB33
:1032F00023C223CB23C2196811601B7913712821C3
:103300002000B0470020C8470200002308480021E1
:1033100080185941084A0023C047B8470DB03CBC4B
:1033200090469946A246AB46F0BDC04641260000F5
:10333000BFCF6A00653C0000C0CF6A0001000020DA
:103340005D2E0000105B0000CD2C0000685B0000CB
:10335000945B0000C05B0000EC5B0000185C0000A8
:1033600002000378002B06D000200130C0B2135CAD
:10337000002BFAD170470020FCE70000F8B5CE46DC
:10338000474680B57048714B9847714B18700028BC
:1033900010D1704B98476E4B1870002814D16E48AE
:1033A0006E4B984700226E4B1A706E4F6E4C6F4BEF
:1033B000994637E0802212036D4B5A6116226D49FF
:1033C0006D486E4B9847E4E780221203684B5A61C0
:1033D000162268496848694B9847E0E70622684921
:1033E0006548664B98476048664B020062CB62C2F4
:1033F00062CB62C262CB62C2196811601B79137121
:103400002821614B9847614B9847554B1B78032BFC
:1034100000D193E05E4B9847514B18700022002A70
:1034200000D08DE0B84723004A4623CA23C323CAED
:1034300023C323CA23C31168196012791A71282182
:103440002000514DA847534B220043CB43C243CBEE
:1034500043C243CB43C2196811601B791371282101
:103460002000A8474C4B220043CB43C243CB43C26E
:1034700043CB43C2196811601B79137128212000C6
:10348000A847464B220043CB43C243CB43C243CB66
:1034900043C2196811601B79137128212000A847C5
:1034A0002F4B1B78012B99D0002BAED0022B13D0C1
:1034B0000122032BB3D02C48394B020062CB62C2ED
:1034C00062CB62C262CB62C2196811601B79137150
:1034D00028212D4B984798E7062229492648274B53
:1034E0009847214B98462F4B424623CB23C223CBF0
:1034F00023C223CB23C2196811601B7913712821C1
:103500004046214DA84720212748284B9847284B63
:10351000424643CB43C243CB43C243CB43C2196869
:1035200011601B79137128214046A8471E48214B82
:10353000984701001C48204B984766E700226EE739
:103540000CBC90469946F8BD3C0000203D100000A0
:1035500012020020B5100000B80B0000852E0000FC
:10356000110200205D2E0000B4010020185E000052
:10357000004400416C5A0000FC010020DD0A0000FC
:10358000C85E0000D05E0000CD2C0000892B00003A
:103590006D2D0000445E0000705E00009C5E000027
:1035A000545F0000FC5E0000540100209D2D0000CF
:1035B000285F000061330000D12B0000F0B5C64643
:1035C00000B59048904B9847904B1870002810D148
:1035D0008F4B98478D4B1870002814D18D488E4B17
:1035E000984700228D4B1A708D4F8E4C8E4B98460B
:1035F00037E0802212038D4B5A6116228C498D4888
:103600008D4B9847E4E780221203884B5A611622BB
:1036100087498848884B9847E0E7062287498548CC
:10362000854B98477F48864B020062CB62C262CBD3
:1036300062C262CB62C2196811601B7913712821C2
:10364000804B9847804B9847744B1A780023062A82
:1036500004D07E4B9847714B18700023002B00D08C
:10366000CDE0B8472300424623CA23C323CA23C35D
:1036700023CA23C31168196012791A712821200006
:10368000704DA847724B220043CB43C243CB43C289
:1036900043CB43C2196811601B79137128212000A4
:1036A000A8476C4B220043CB43C243CB43C243CB1E
:1036B00043C2196811601B79137128212000A847A3
:1036C000654B220043CB43C243CB43C243CB43C2EF
:1036D000196811601B79137128212000A8475F4BDE
:1036E000220043CB43C243CB43C243CB43C21968FE
:1036F00011601B79137128212000A847584B220024
:1037000043CB43C243CB43C243CB43C2196811608E
:103710001B79137128212000A847524B220043CB6C
:1037200043C243CB43C243CB43C2196811601B79E8
:10373000137128212000A847384B1A78062A4BD845
:103740009300494AD3589F4606223C4939483A4B90
:103750009847464B984777E7062238493548364B15
:103760009847434B98476FE7062234493148324B1C
:1037700098472C483F4B020062CB62C262CB62C2C8
:1037800062CB62C2196811601B79137128212D4B1D
:103790009847394B984757E7062228492548264B32
:1037A00098472048354B020062CB62C262CB62C2AE
:1037B00062CB62C2196811601B7913712821214BF9
:1037C00098472F482F4B9847002800D13CE74021CD
:1037D0002B482D4B984737E712482C4B020062CB01
:1037E00062C262CB62C262CB62C2196811601B798D
:1037F00013712821134B984726E701232EE704BCB9
:103800009046F0BD0C0000203D1000001202002088
:10381000B5100000B80B0000852E0000110200203A
:103820005D2E0000B4010020605C000000440041F7
:103830006C5A0000FC010020DD0A0000C85E000098
:10384000D05E0000CD2C0000892B00006D2D000003
:103850008C5C0000B85C0000E45C0000105D0000BF
:103860003C5D0000685D0000445C0000FD29000034
:10387000B52A0000945D0000352B0000C05D0000FB
:1038800074010020BD290000E52C0000EC5D000063
:1038900070B5274B9847274C274B220023CB23C2D8
:1038A00023CB23C223CB23C2196811601B79137168
:1038B00028212000214DA847214B220043CB43C2A1
:1038C00043CB43C243CB43C2196811601B791371C8
:1038D00028212000A8471B4B220043CB43C243CBE7
:1038E00043C243CB43C2196811601B79137128216D
:1038F0002000A847144B220043CB43C243CB43C212
:1039000043CB43C2196811601B7913712821200031
:10391000A8470E4B98470E4A1070012802D0022883
:1039200003D070BD0B4B9847FBE70B4B9847F8E76C
:103930005D2E0000B4010020805F0000CD2C00004F
:10394000AC5F0000D85F0000046000006D2D000037
:10395000110200207D330000BD35000010B5034B7F
:103960009847034B9847034CA047FDE78528000084
:103970002D2C000091380000002243088B4274D3A4
:1039800003098B425FD3030A8B4244D3030B8B4260
:1039900028D3030C8B420DD3FF22090212BA030C69
:1039A0008B4202D31212090265D0030B8B4219D34A
:1039B00000E0090AC30B8B4201D3CB03C01A52416A
:1039C000830B8B4201D38B03C01A5241430B8B42B2
:1039D00001D34B03C01A5241030B8B4201D30B039B
:1039E000C01A5241C30A8B4201D3CB02C01A5241C2
:1039F000830A8B4201D38B02C01A5241430A8B4285
:103A000001D34B02C01A5241030A8B4201D30B026D
:103A1000C01A5241CDD2C3098B4201D3CB01C01A87
:103A2000524183098B4201D38B01C01A5241430991
:103A30008B4201D34B01C01A524103098B4201D37F
:103A40000B01C01A5241C3088B4201D3CB00C01AEC
:103A5000524183088B4201D38B00C01A5241430864
:103A60008B4201D34B00C01A5241411A00D2014689
:103A7000524110467047FFE701B5002000F0F0F812
:103A800002BDC0460029F7D076E7704703460B43D6
:103A90007FD4002243088B4274D303098B425FD347
:103AA000030A8B4244D3030B8B4228D3030C8B4273
:103AB0000DD3FF22090212BA030C8B4202D3121259
:103AC000090265D0030B8B4219D300E0090AC30B2E
:103AD0008B4201D3CB03C01A5241830B8B4201D3DB
:103AE0008B03C01A5241430B8B4201D34B03C01AC4
:103AF0005241030B8B4201D30B03C01A5241C30A3C
:103B00008B4201D3CB02C01A5241830A8B4201D3AC
:103B10008B02C01A5241430A8B4201D34B02C01A96
:103B20005241030A8B4201D30B02C01A5241CDD23B
:103B3000C3098B4201D3CB01C01A524183098B4286
:103B400001D38B01C01A524143098B4201D34B016F
:103B5000C01A524103098B4201D30B01C01A5241D2
:103B6000C3088B4201D3CB00C01A524183088B4259
:103B700001D38B00C01A524143088B4201D34B0042
:103B8000C01A5241411A00D20146524110467047B4
:103B90005DE0CA0F00D04942031000D340425340B9
:103BA00000229C4603098B422DD3030A8B4212D379
:103BB000FC22890112BA030A8B420CD389019211AB
:103BC0008B4208D3890192118B4204D389013AD0E8
:103BD000921100E08909C3098B4201D3CB01C01ABD
:103BE000524183098B4201D38B01C01A52414309D0
:103BF0008B4201D34B01C01A524103098B4201D3BE
:103C00000B01C01A5241C3088B4201D3CB00C01A2A
:103C1000524183088B4201D38B00C01A5241D9D242
:103C200043088B4201D34B00C01A5241411A00D2C3
:103C30000146634652415B10104601D34042002BBF
:103C400000D54942704763465B1000D3404201B53E
:103C5000002000F005F802BD0029F8D016E77047F3
:103C60007047C046002B11D1002A0FD1002900D186
:103C7000002802D00021C943081C07B4024802A151
:103C80004018029003BDC046D9FFFFFF03B4684649
:103C900001B5029800F030F8019B9E4602B00CBCC2
:103CA0007047C046F0B5CE46474615042D0C2E0091
:103CB00080B50704140C3F0C9946030C7E435D430A
:103CC000674363437F19340CE4199C46A54203D92A
:103CD00080235B029846C4444B4651434343360419
:103CE000360C250C24046544A419591849192000E0
:103CF0000CBC90469946F0BDF0B557464E46454639
:103D0000DE46E0B5040083B00D00924699468B4232
:103D10002FD82CD04946504601F012FD290006004C
:103D2000200001F00DFD331A9846203B9B4600D53C
:103D300074E053465A4693401F0053464246934010
:103D40001E00AF4229D826D05B46A41BBD41002BE4
:103D500000DA79E0002200230092019301235A4601
:103D600093400193012342469340009319E082421D
:103D7000D0D900220023009201930C9B002B01D08C
:103D80001C605D600098019903B03CBC9046994668
:103D9000A246AB46F0BDA342D6D900220023009232
:103DA00001934346002BE8D0FB0772081A434646AE
:103DB0007B080EE0AB4201D1A2420CD8A41A9D416F
:103DC000012024196D410021013E24184D41002E8F
:103DD00006D0AB42EED9013E24196D41002EF8D138
:103DE0005B460098019900196941002B22DB2B00EA
:103DF0005A46D3402A004446E2401C005B46150068
:103E0000002B2CDB26009E40330026004746BE4098
:103E10003200801A994100900191AEE7424620237A
:103E20009B1A5246DA40414613004A468A40170020
:103E30001F4382E7424620239B1A2A0046469A40A7
:103E40002300F3401343D5E74246202300219B1A69
:103E50000022009101920122DA40019282E742465B
:103E6000202326009B1ADE402F00B446974066466A
:103E70003B003343C9E7C046F8B54546DE465746E2
:103E80004E460C03E0B54E00C90F88460D00610A8E
:103E9000440F0C43C70019035800DB0F9B464B0A25
:103EA000510F0B43760D400D1900D200D84500D1BB
:103EB000AEE0351A002D00DCF6E000280FD11343E8
:103EC00000D1DBE06B1E002B00D037E1BA1A97421D
:103ED000BF41641A7F42E41B0126170024E0C64B51
:103EE0009E424DD080231B041943382D00DD07E18D
:103EF0001F2D00DD38E12020431B9A460B00504661
:103F00008340994613004846EB401843030050464F
:103F10008240501E8241E9401A43BA1A611A974200
:103F2000A441170064420C1B230262D56402650A97
:103F3000002D00D1DFE0280001F0E4FB0300083B86
:103F40001F2B00DDD2E020223C00D21A9D40D4403D
:103F50009F4025439E4200DDC4E09E1B731C1F2B27
:103F600000DDF1E0202238002900D21AD84091402B
:103F700097402C000143781E8741DC4000260F4308
:103F80007B0709D00F233B40042B05D03B1DBB42D0
:103F9000BF417F42E4191F0023022CD5964B013606
:103FA0009E4200D19AE04546944BFF081C406007B2
:103FB000760564020743240B760D00212403230BAE
:103FC0000C0D8F4A24051C431440330523435B002A
:103FD000ED075B082B43380019003CBC904699461E
:103FE000A246AB46F8BD6446044300D111E204008A
:103FF00067467B07C6D145466007FF080743E408CC
:104000007D4B9E4230D024037605240B760DD4E7F9
:10401000331A9A46002B78DD002831D07648864244
:10402000AED08020000401435346382B00DCE9E089
:104030000A43511E8A410021D219BA42BF410919CF
:104040007C4217000C192302D3D56B4B01369E42DC
:1040500000D13AE10120694B1C407B0807401F4317
:10406000E007074364088BE723003B4300D1CBE123
:104070008022120314432403240B9EE72E007FE7C3
:104080000800104300D1B4E0581E002800D0DEE044
:10409000BA18BA429B4164185B42E4181700012623
:1040A0002302A6D50226D5E7002D6ED1701C40054F
:1040B000400D012800DCF9E0B81A844687428041AF
:1040C000E51A40422D1A280200D489E0D71BBA42D3
:1040D00092411C1B5242A51AD84629E745460024A6
:1040E00000276AE7454CF61A2C4049E73D0028387E
:1040F000854000272EE7380001F004FB20301DE743
:104100000A43511E8A41002107E7002B00D0F3E04B
:10411000701C43055B0D012B00DCADE0364B984273
:1041200000D1D1E0BA18BA42BF4164187F42E41905
:10413000E707520817436408060021E72E48854226
:1041400000D193E01D00D0E629001F3EF140202B56
:1041500000D18DE04022D31A9D402F437D1EAF41F8
:1041600000240F43002644E72B000800203BD840E2
:104170000300202D00D17DE04020451BA9400A43CB
:10418000511E8A4100211A43C7E6002E50D01A4E14
:10419000B04257D080266B429946360434434B4692
:1041A000382B00DDD6E01F2B00DD35E12026F51A87
:1041B0002600AE40B2463E00DE40AC4635005646D4
:1041C0002E436546AF407D1EAF41DC403743D71BD1
:1041D000BA4292410C1B5242A41A0600D846A3E6EA
:1041E000644667462C4300D0A2E60025002600273F
:1041F00006E71E00C4E6C046FF070000FFFF7FFF82
:10420000FFFF0F801F2B63DC2020C31A080098409B
:104210009C46834653461000D84003005846184336
:1042200063469A40531E9A4153460243D94003E7DE
:1042300026003E4306D0EB439946002BC7D0944E50
:10424000B042ACD10C0017000600D84698E6904B5F
:104250009A450BD08246E7E6002800D09EE0180081
:10426000104300D1E9E01C001700D846884E87E6CD
:10427000002572E7002182E723003B43002E00D097
:10428000ABE0002B00D1E7E00B00134300D177E651
:10429000BA18BA42BF4164187F42E419230200D41D
:1042A000F2E07C4B17001C40060069E62000384312
:1042B000002ED1D100285BD11C00144300D1A8E00E
:1042C0001C001700D8465BE606000024002797E68E
:1042D00050460B002038C34099465346202B00D14E
:1042E00095E0402350461B1A99400A43511E8A41CB
:1042F0004B4600211A439FE6002E30D126003E4354
:1043000067D0DB439A46002B1CD0614EB04260D090
:104310005346382B00DD96E01F2B00DD9FE0202662
:10432000F31A26009E409C46B34653463E00DE40AC
:1043300033005E461E4363469F407B1E9F415346AB
:10434000DC403743BF189742924164185242A41888
:10435000060078E627437C1EA741002437E74C4E31
:10436000B04236D080265B4236049A463443CFE7CB
:104370001800104300D103E6B81A84466745AD41E2
:10438000E01A6D42401B050200D42CE6D71BBA424E
:1043900092411C1B5242A41AD846F1E51800104362
:1043A00000D163E7F808670707438020E4080003AB
:1043B000044208D0DD08054205D1D208590711434F
:1043C0000F002C00D8467B0FE4001C43FF00304E4A
:1043D000D6E50C0017000600D2E5002B38D00B0004
:1043E000134300D142E7F808670707438020E40839
:1043F00000030442E7D0CB080342E4D1D2084907C6
:1044000011430F001C00DEE700270024D5E5002142
:104410006BE700250027F3E54E462500203EF540DA
:104420004B462E00202B2DD04025ED1AAC402743C3
:104430007C1EA74100243743C9E6802400252403BD
:10444000134E0027DCE527437C1EA741002479E7B3
:104450000C0017000E4E93E50C00170090E5564631
:104460002300203EF34099465346202B0ED0402394
:1044700056469B1B9C4027437C1EA7414B4600246D
:104480001F435FE70024D2E71700B2E50024F2E7FC
:10449000FF070000FFFF7FFFF0B557464546DE46A9
:1044A0004E46E0B54C000E0387B0834692461D0091
:1044B0008046360B640DCF0F002C4FD06F4B9C42C3
:1044C00035D08023420F1B04F60013433343994633
:1044D000C30098466A4B00269C460023644403931D
:1044E0002B031B0B9B466B00ED0F50465B0D01959C
:1044F0005ED0624A934253D05A46D1008022400F88
:10450000120402430A4393465246D1005C4A944641
:10451000002263443800684084460290E41A16433F
:104520000F2E00D9B4E0574BB6009B599F460300AD
:10453000334399466CD100239846023308260393EF
:10454000CEE7CB464146039A0197022A65D1019BEB
:104550004A4C9C460023002298466BE003003343FC
:1045600099464ED0002E00D1BCE1300001F0CAF8CF
:1045700003000B3B1C2B00DDACE11D22D31A5A4675
:104580000100DA4008398E401300334399465B46F8
:104590008B40984600233C4C0026241A03939FE747
:1045A00051465A46114329D1002293460232B1E7BF
:1045B000594601431ED05B46002B00D19EE1584670
:1045C00001F0A0F803000B3B1C2B00DD8FE1020083
:1045D0005946083A91408B461D21CB1A5146D94085
:1045E0000B0059460B4351469B469140264B0022F7
:1045F0001B1A8FE7002301229B468BE751460322BB
:1046000088E700239846013304260024039367E7D4
:104610000323B14603930C2662E7032A00D15CE230
:10462000019B012A00D0E4E113409C4600230024B2
:104630000022984600211203130B0A0D12051A439B
:104640002305124C40462240134362465B00D207CA
:104650005B081343190007B03CBC90469946A2463C
:10466000AB46F0BD002380229C4612039846034CC3
:10467000E0E70023014C00229846DBE7FF0700003B
:1046800001FCFFFF306000000DFCFFFFFFFF0F800B
:10469000D94500D939E100D134E1002346464D46E1
:1046A0009A46013C5B460A0E1B021A430B02170C8A
:1046B000039313041B0C3900280090460193FFF765
:1046C0005BF90200019B83465A432800390091465A
:1046D000FFF7D8F9350C09040D43A9450DD95B4600
:1046E0004544013BA84500D93AE1A94500D837E146
:1046F00002235B429C464544E3444B46EB1A390097
:1047000018000493FFF738F9019B05004343390073
:1047100004989946FFF7B6F9330409041B0C0B43C0
:10472000994509D943446A1E984500D91AE199452B
:1047300000D817E1023D43444A469B1A5A461204E8
:104740002A4303999346100C0A0C914609045A46D1
:10475000090C4E460D001204120C454305915143BD
:104760007243704352190E0CB218954203D980253A
:104770006D02AC466044150C09041204090C28189B
:104780005218834200D2CEE000D1C8E01D1A534631
:104790009E1AB24592415242AB1A9A46984500D1B0
:1047A00017E139001800FFF7E7F8019B05004343C4
:1047B000390050460493FFF765F904980B04310C57
:1047C0001943884209D941446B1E884500D907E145
:1047D000884200D804E1023D4144049BCB1A1800F2
:1047E00039000493FFF7C8F8019B82464343390020
:1047F00004980193FFF746F901980B043104090C62
:10480000194388420DD953464144013B884500D99C
:10481000E8E0884200D8E5E002235B429C46414440
:10482000E244019B2D04CE1A51462943059D4F4673
:104830002A000B04080C1B0C5A4345437B43784366
:104840005B19170CFB189D4203D980256D02AC46FD
:1048500060441D0C12041B04120C28189B1886427D
:1048600000D293E000D18EE001231943A04BE3185E
:10487000002B00DC99E04A0700D09EE05A46D201A6
:1048800006D55A469B4B1A4080239346DB00E3181B
:10489000994A934268DD0123029A984C1A400023FA
:1048A000944698460022C5E680224B4612031342E6
:1048B0000AD05B46134206D11A431203120BAC46D0
:1048C00088468E4CB6E64B461A431203120BBC4682
:1048D0008A4CAFE603005A46283B9A400023914693
:1048E000984657E6584600F00DFF203040E603009A
:1048F0005246283B9A400021934677E600F002FF9B
:1049000020305FE6884500D2C7E64B46DE075D08EB
:1049100043465B081E434346DB079A46C2E6002532
:10492000924500D333E7039E5946B446E244B2456C
:10493000AD416D424544EB180139984507D2984284
:1049400000D97FE000D1BCE01D1A8B461FE79845D7
:10495000FAD1039D5545F2D943468B461D1A16E7F9
:104960009B46CAE61500E7E65A46C90852070A43BD
:104970005B0590465C0D5A4601230299520219408C
:10498000120B8C4656E6002B00D16FE746444A1EB8
:10499000B04529D91100864200D065E7039A9342B9
:1049A00000D061E762E7012149420120C21A382A9A
:1049B00021DD029B03409C4638E60F220A40042A70
:1049C00000D15BE70A00111D91429241524293448B
:1049D00054E7474BE318002BE5DD01225242F2E792
:1049E0001D00FAE69A461CE7B04239D86ED0110095
:1049F0003AE702933AE71F2A3CDC20239B1A0C007B
:104A00005846994098404B1E99415B46D440D3404C
:104A1000204308431A00430709D00F230340042B07
:104A200005D00100081D88429B415B42D218130249
:104A30003AD50123029A01241A400023944698464D
:104A40000022F7E5022149428C46039DE344AC462F
:104A5000E244AA45AD416D424544ED182D1A96E653
:104A60008A1E03994D008D4289414942414476187E
:104A700003958FE71F204042C31A5846D8400300D1
:104A8000202A28D040205D46821A954029434A1E9C
:104A900091411943072300220B4009D00F23002224
:104AA0000B400800042BBDD1010053075202120B2A
:104AB000C9081943012388460299002419408C46ED
:104AC000B8E55245BED88B46002560E6039D9D4261
:104AD000C6D3110062E70025D8E780225B461203A7
:104AE0001A43019B1203120B9C468846034CA1E516
:104AF000FF030000FFFFFFFEFE070000FF070000AE
:104B0000F0B557464546DE464E46E0B50C0398469E
:104B10004E00230B87B0070092469B46760DCD0FC3
:104B2000002E6BD06D4B9E4235D080245B46420FE9
:104B30002404DB0014431C43C3009946684BA3467E
:104B40009C46002300276644029343461C035A00F8
:104B5000DB0F5046240B520D984600D176E05F4B98
:104B60009A426DD08023410F1B040B435C49E40043
:104B70008C461C43C300002062444146B61869407D
:104B8000721C0191944607430F2F00D9B0E0554A9B
:104B9000BF00D25997465B460343994600D087E051
:104BA00000239B46023308270293CEE74246019238
:104BB000022867D0032800D10EE2012800D062E16C
:104BC000002300240022994601990140CDB2002122
:104BD00012030B0D120B1B051343434A240513400C
:104BE0001C436400ED0764082C434846210007B0CD
:104BF0003CBC90469946A246AB46F0BD034399465D
:104C00004FD05B46002B00D189E1584600F07AFD79
:104C100003000B3B1C2B00DD7AE11D22D31A3A0066
:104C200001005C46DA4008398C4013008F40234372
:104C30009B46B94600232D4E0027361A029384E77F
:104C4000534623432AD10024022096E753462343A8
:104C500020D0002C00D157E1200000F053FD0300CC
:104C60000B3B1C2B00DD49E11D21CB1A51460200F4
:104C7000D9405346083A944093400C431B4A121AB9
:104C800000207AE70125019B144C1D4000230022DF
:104C900099469CE70024002201206EE7534603203A
:104CA0006BE700239B4601330427002602934CE761
:104CB000032381460C27029347E780220023002527
:104CC00012039946054C82E75C464B4602986FE713
:104CD0005C464B46019502986AE7C046FF07000014
:104CE00001FCFFFF70600000FFFF0F800DFCFFFF65
:104CF0004A464946170C1A0C1B041B0C08041900E1
:104D0000000C41431500884619007D437943039503
:104D100089462900150045434D44029545462D0C12
:104D2000AA46029D5544A94506D98A4680214902D2
:104D30008946CA4451460391290C0491414609040D
:104D40002D04090C88462900250C24044144240C18
:104D50000591210041438846210079438A466843F2
:104D6000414650448146080C48446F43824503D96C
:104D70008021490289464F44010C89463900494443
:104D8000029141460F0404993F0C88460004C01963
:104D900080444146049159460F0C0904090C884689
:104DA00059438A4639005143894641464A43514650
:104DB000090C8B467B43D2185A44934203D9802373
:104DC0005B029B46D94451460904090C8A46414678
:104DD00061437C43130C12044B445244A1468A465F
:104DE0003C0041466C434D4351464D440F0C7D19E8
:104DF000A94503D98021490288464444049F039968
:104E0000B84641448B4683458041414288465146DD
:104E100008042F04000C3F185846029910188946C0
:104E2000904292414F44BA46524299469346C244F8
:104E3000D144CB448F42BF41C245894199459B41F2
:104E4000934592417F4249422D0C52420F435B42AF
:104E500013437F19FF185B463C19DB0D059A64026A
:104E60001C43430213435D1EAB415A46C00D03432E
:104E700052021343E20156D501205A08034013435E
:104E8000E207134364085A48604400284DDD5A077E
:104E900009D00F221A40042A05D01A1D9A429B41BC
:104EA0005B42E4181300E20104D58020514AC0009F
:104EB00014406044504A904200DDE3E60125DB08DF
:104EC00062071A436402019B9146220B4405640D5C
:104ED0001D407CE6802259461203114208D014423C
:104EE00006D122431203120B45469946434C6EE607
:104EF0005B461A431203120B404C68E6030054460B
:104F0000283B9C400023B9E600F0FCFB2030A6E6DD
:104F10000300283B9F400023BB4699468AE600F0E9
:104F2000F1FB203074E6B446ADE701252A1A382A91
:104F300006DD019B00241D4000230022994646E621
:104F40001F2A21DC20252000AD1A1E00AB40A840FE
:104F5000D6405D1EAB4130431843D440430709D0CF
:104F60000F230340042B05D00300181D98429B41DA
:104F70005B42E418230221D50125019B01241D4039
:104F800000230022994622E61F2521006D42281A9F
:104F9000C1400800202A1DD05F35AA1A944023433F
:104FA0005C1EA341072503431D400022002D09D0AC
:104FB0000F2200241A401800042AD6D103006507E6
:104FC0006402220BDB082B4301259946019B002438
:104FD0001D40FCE50024E2E7802201251203224364
:104FE00001991203120B0D409946044CEFE5C0469F
:104FF000FF030000FFFFFFFEFE070000FF070000A9
:10500000F0B54646D6464F460C03C0B5CD0F4E0010
:10501000610A440F0C43C1005800400D84468A4683
:105020000F001903500F490A0143C648760DA846E0
:10503000DB0FD200844500D1D8E001204340AB42D1
:1050400000D1A6E06046351A002D00DC05E10028FD
:1050500010D10B00134300D1D7E06B1E002B00D002
:105060004BE153469F1ABA458041641A4042241AC4
:1050700001261EE0B34B9E4248D080231B041943F7
:10508000382D00DD19E11F2D00DD4CE120230F003C
:105090005B1B10009A409F40E840531E9A41E94034
:1050A000074317435346DF1B611ABA45A4416442C4
:1050B0000C1B230200D4C5E06402650A002D00D158
:1050C000F6E0280000F01EFB0300083B1F2B00DD6C
:1050D000E9E020223C00D21A9D40D4409F40254365
:1050E0009E4200DDDBE09E1B731C1F2B00DD0AE1EE
:1050F00020223800D21A290097402C009140D84035
:105100007A1E9741DC40002601430F437B0709D0FC
:105110000F233B40042B05D03B1DBB42BF417F42C8
:10512000E4191F00230225D5864B01369E4200D18B
:10513000AFE0854B01251C4043466207FF0864022F
:1051400076051743240B760D1D4000212403230B05
:105150000C0D7E4A24051C431440330523435B0099
:10516000ED075B082B43380019001CBC904699469C
:10517000A246F0BD012543466207FF081743E40835
:105180001D40704B9E4236D024037605240B760DCD
:10519000DBE76346F31A002B00DC94E0604600284E
:1051A00035D068488642B1D080273F043943382B38
:1051B00000DCFDE00A43170000217A1E97415744A6
:1051C00057458041091944420C1923023AD55D4BD9
:1051D00001369E4200D14BE101225B4B1C407B0813
:1051E00017401F43E207174364088FE70800104386
:1051F00000D024E721E723003B4300D1B9E180221E
:10520000120314432403240B9FE72E007EE70800BB
:10521000104300D1CAE0581E8446002800D0E7E0C1
:105220005244524580416418404224181700012618
:10523000230207D50226CFE764462C4300D1B3E111
:105240002C0067467B0700D062E76307FF081F4317
:1052500001254346E4081D4093E7002D78D1751CD5
:105260006D056D0D012D00DCF2E05046801A82457F
:10527000BF41651A7F42ED1B8446280200D48CE0B2
:105280005046171ABA4292410C1B5542651B98466C
:1052900014E70125434600241D40002755E72A4C0A
:1052A000F61A2C4032E73D0028388540002717E7E2
:1052B000380000F027FA203006E70A4317000021E3
:1052C0007A1E9741EEE6002B00D0E5E0731C9C4669
:1052D0005B055B0D012B00DC9FE01A4B9C4500D168
:1052E000C5E0524452458041641840422418E70703
:1052F000520817436408664608E71248854200D101
:1053000085E01D00BCE629001F3EF140202B00D1A6
:105310007FE04022D31A9D402F437D1EAF410024E1
:105320000F4300268EE72B000F00203BDF40202D8F
:1053300071D040235D1BA9400A43511E8A410021C0
:105340001743AFE6FF070000FFFF7FFFFFFF0F805F
:10535000002E3ED0B34EB44545D0802636046D4273
:105360003443382D00DDA8E01F2D00DD1FE120268D
:1053700027005046761BB740E84007435046B040F0
:10538000461EB041EC403843171ABA4292410C1BFA
:105390005242A41A664698468BE6644667462C43FA
:1053A00000D08BE6002500260027EAE61E00ADE6C9
:1053B0001F2B60DC2027F81A0F008446874010005E
:1053C000D840074360468240501E8241D94017436F
:1053D000F5E626005046064305D0ED43002DD3D018
:1053E000904EB445BDD10C001700664698468DE638
:1053F0008C4883420BD06346D9E6002D00D096E05E
:105400000800104300D1E2E00C0017009846854EDA
:105410007CE6002580E700218EE723005046034309
:10542000002E00D0A8E0002B00D1DEE00B001343DB
:1054300000D16BE652445245804164184042241822
:105440001700230200D4FDE6774B66461C405DE65C
:10545000250050460543002ECFD1002D4FD10C0022
:10546000144300D1A0E00C00170098464EE66646B3
:105470000024002785E61F000800203FF8400700B1
:10548000202B00D18EE04020C31A99400A43511EC0
:105490008A410021174392E6002E14D1260050467F
:1054A000064362D0DB43002B5CD1871897429241C0
:1054B00064185242A418664687E650462043441EAC
:1054C000A041002460E7574EB4454ED080263604F4
:1054D0005B423443382B00DD7FE01F2B00DD8BE087
:1054E000202627005046F61AB740D84007435046BA
:1054F000B040461EB0410743DC40BF18D6E70D0060
:10550000154300D102E65046801A8245BF41651A14
:105510007F42ED1B8446280200D48DE65046171AC0
:10552000BA4292410C1B5242A41A9846EEE50D0075
:10553000154300D16BE750466707C008074380203A
:10554000E4080003044207D0CD08054204D12C0032
:105550009846D70849070F437B0FE4001C43FF0020
:10556000304ED3E52F4EB445B4D10C00170066463B
:10557000CCE500270024E8E5002B39D00B001343CD
:1055800000D144E7C008670707438020E408000310
:105590000442E1D0CB080342DED1D70849070F43CC
:1055A0001C00D9E7002171E700250027E9E52E005E
:1055B0002700203EF740202D2FD04026751BAC4001
:1055C00050462043441EA04100243843DCE680249A
:1055D00000252403134E0027D3E55046204307003F
:1055E000781E87410024BF1860E70C0017008DE586
:1055F0000C0017000B4E89E51E002700203EF740E7
:10560000202B0CD04026F31A9C4050462043441EC9
:10561000A04107430024BF1848E70024D0E7002436
:10562000F3E7C046FF070000FFFF7FFF30B5134DD3
:105630000A034B00120B5B0DC90F0024AB4210DDB7
:105640000F4CA3420FDC80240E4D64032243ED1A5D
:105650001F2D0BDD0C48C31ADA405442002900D13B
:105660001400200030BD094BCC18FAE7084CE84084
:10567000A44663449A400243EFE7C046FE0300009D
:105680001D0400003304000013040000FFFFFF7F2F
:10569000EDFBFFFF10B5041E28D000F033F8154BCA
:1056A000154A1B1AD21A1F2A15DD144AD21A944021
:1056B000002224035B05240B5B0D00211000240352
:1056C0000A0D240B120522430D4C1B0522401343E7
:1056D0005B00590810BD210091400A000B21081AF7
:1056E000C4405B052403240B5B0DE6E70023002484
:1056F0000022E2E71E04000033040000130400004F
:10570000FFFF0F801C2101231B04984201D3000CD2
:1057100010391B0A984201D3000A08391B09984224
:1057200001D30009043902A2105C40187047C0463A
:10573000040302020101010100000000000000005A
:1057400010B5002903D1FFF7DDFF203002E0081C6F
:10575000FFF7D8FF10BDC04670B500260C4D0D4CAC
:10576000641BA410A64209D1002600F0D1FC0A4D0A
:105770000A4C641BA410A64205D170BDB300EB58BF
:1057800098470136EEE7B300EB5898470136F2E749
:105790001C6100001C6100001C6100002061000011
:1057A00010B5034B0100186800F078F810BDC04632
:1057B0007000002010B5034B0100186800F024F8B9
:1057C00010BDC0467000002030B50024A24201D1B7
:1057D000002005E0035D651C0C5DA34201D0181B91
:1057E00030BD2C00F2E7002310B59A4200D110BD65
:1057F000CC5CC4540133F8E703008218934200D113
:10580000704719700133F9E770B50500002910D011
:105810000C1F2368002B00DAE418280000F0BBF806
:105820001D4A1368002B05D163601460280000F046
:10583000B3F870BDA34209D9216860188342F3D13F
:1058400018685B6841182160EEE713005A68002A67
:1058500001D0A242F9D919685818A0420BD120688A
:105860000918581819608242E0D11068526841182E
:1058700019605A60DAE7A04202D90C232B60D5E701
:1058800021686018824203D1106852684118216073
:1058900062605C60CAE7C046DC010020032370B58B
:1058A000CD1C9D43083506000C2D1ED20C25A942A7
:1058B0001DD8300000F06FF8254A14682100002937
:1058C00019D1244C2368002B03D1300000F044F898
:1058D00020602900300000F03FF8431C2CD10C233D
:1058E0003000336000F058F803E0002DDFDA0C23BD
:1058F0003360002070BD0B685B1B1AD40B2B03D9DF
:105900000B60CC18256003E08C420ED163681360F5
:10591000300000F041F8200007220B30231D904397
:10592000C31AE7D05A42E250E4E74B6863600C00C8
:10593000EEE70C004968C2E70323C41C9C43A04265
:10594000E0D0211A300000F007F8431CDAD1C6E796
:10595000DC010020E0010020002370B5064C0500AA
:1059600008002360FDF718F8431C03D12368002BBF
:1059700000D02B6070BDC04614020020020010B59C
:105980001378002B05D1CC5CD4540133002CFAD110
:1059900010BD0132F4E7704770470000000D0000B1
:1059A000140D0000300D0000000D0000000D00007F
:1059B000300D00003E0D00004A0D000004000340C1
:1059C0009C19000090190000D8190000E41900008B
:1059D000F0190000FC190000521B00008C1B000095
:1059E0009A1B0000A81B0000B61B0000C41B00008F
:1059F0000000600100006002800010010002000849
:105A000000020009000405000411334300080042AD
:105A1000000C004200100042001400420018004236
:105A2000001C0042222300001E2300001E23000051
:105A30008423000084230000362300002823000074
:105A40003C230000722300000C240000EC23000023
:105A5000EC23000078240000FE2300001A2400003C
:105A6000F02300002824000068240000536F6D65B7
:105A70002070726F626C656D206F63637572726502
:105A800064210A0D00000000436F6E66696720699B
:105A900073206C6F636B65640A0D0000436F6E6664
:105AA0006967206973206E6F74206C6F636B656427
:105AB0000A0D000044617461206973206C6F636B90
:105AC00065640A0D00000000446174612069732060
:105AD0006E6F74206C6F636B65640A0D00000000CC
