S0110000546F67676C654C45442E73726563DC
S11300005020002055070000510700005107000050
S113001000000000000000000000000000000000DC
S11300200000000000000000000000005107000074
S1130030000000000000000051070000510700000C
S1130040510700005107000051070000510700004C
S1130050510700005107000051070000510700003C
S1130060510700005107000051070000510700002C
S1130070510700005107000051070000510700001C
S1130080510700005107000051070000510700000C
S113009051070000000000000000000051070000AC
S11300A0510700000000000051070000000000009C
S11300B00000000010B5064C2378002B07D1054B37
S11300C0002B02D0044800E000BF0123237010BDC0
S11300D01000002000000000C80C0000084B10B500
S11300E0002B03D00749084800E000BF0748036815
S11300F0002B00D110BD064B002BFBD09847F9E72D
S11301000000000014000020C80C0000C80C00000F
S1130110000000000C4B1B68002B06D1EFF310838A
S1130120002B07D00022094B1A70074A13680133C9
S11301301360704772B6BFF35F8F0022044B1A70CE
S11301400132024B1A70F0E72C000020300000202E
S11301500C000020084B1A68013A1A601B68002B37
S113016009D1064B1B78002B05D00122044B1A70D1
S1130170BFF35F8F62B670472C0000203000002070
S11301800C000020F0B583B001AC01256570002798
S1130190A770257021001320064EB0478022120359
S11301A0054B9A612770657021001C20B04703B08D
S11301B0F0BDC046BD0100000044004100B583B05D
S11301C001AB80221A700A785A704A789A708A7839
S11301D0DA701900014B984703B000BDF106000026
S11301E010B5082803D880001C4B1B589F460020DC
S11301F032E01B4B18692FE01A4B1B6A9B059B0FBF
S11302001948D84028E0164B586925E0144B1B6860
S113021000209B0720D513491022CB681A42FCD03A
S11302200F4B1A6824231340042B01D00F4813E00A
S113023000200F4B98470A4B9B681B041B0C584328
S11302400AE05023074AD35C00205B0704D5044B23
S1130250D86801E08020000210BDC046580C0000A0
S1130260340000200008004000127A00006CDC0218
S11302701506000070B50C490B6A0478857840783F
S11302800122104080014026B34303432A40D20197
S11302908020834313430322224012020348034075
S11302A013430B6270BDC04600080040FFFCFFFF13
S11302B0082803D88000254B1B589F46172044E08C
S11302C0234A136A02210B43136200203DE0204AB3
S11302D0936902210B439361002036E01C4A138A80
S11302E002210B43138200202FE0194A938A022132
S11302F00B439382002028E016490B680222134323
S11303000B60134B9A8419000E32CB681A42FCD04E
S1130310104A91680E4BD96252689A6200229A84FC
S113032019001032CB681A42FCD00A4B1B689BB2EE
S1130330074A9384002008E0054944228B5C02208C
S113034003438B54002000E0002070477C0C000025
S1130350000800403400002030B585B0C222D2002D
S11303601A4B9A601A4A53681E218B435360012327
S11303706A4613700024174DE0B26946A847013459
S1130380252CF9D103A8002444700125857004703C
S1130390114B98470620114B9847114B9847114B26
S11303A01C725C729C72DC7201956B465C70062355
S11303B06A46137014725472694600200A4B9847B7
S11303C000200A4B984705B030BDC04600080040E5
S11303D000400041F905000075020000B102000070
S11303E0F10300000004004015040000CD040000E7
S11303F0064A936908210B4393610122044B1A7046
S113040019000B781342FCD17047C0460004004029
S1130410000C004070B5060004000D782D02054361
S11304204B78002B02D08023DB021D434B7A002B38
S113043002D080231B031D434868012810D9431EA2
S1130440184234D1022830D90223002201325B0041
S11304509842FBD812023243140080235B031D43ED
S11304600B7A002B02D080239B031D43134A53783D
S11304705BB2002BFBDB124B9847124B1E700F4AEA
S113048053785BB2002BFBDB0C4B9C601A00537857
S11304905BB2002BFBDB094A5368802149020B4005
S11304A01D435560084B984770BD0022D2E70402F3
S11304B0344380239B021D43D2E7C046000C004016
S11304C015010000080C00405501000010B504009F
S11304D00B4A53785BB2002BFBDB0A4B98470A4B61
S11304E01C70074A53785BB2002BFBDB044A51684B
S11304F080235B020B435360044B984710BDC046F6
S1130500000C004015010000040C004055010000DF
S113051070B504001A4A53785BB2002BFBDB194B0D
S11305209847194B1C70164A53785BB2002BFBDBBF
S1130530134E7068C004C00E144B98470500124B4C
S11305401C707668F602F60F114B1C700C4A537837
S11305505BB2002BFBDB0A4B9C682402240C0D4B82
S11305609847002E07D1012C07D9210028000A4BF7
S11305709847050001E00134E540280070BDC046FD
S1130580000C004015010000040C0040E1010000D3
S1130590080C0040550100009108000010B504004B
S11305A00F4B98470F4B1C700F4A53881B05180FAD
S11305B053880E490B40538053880D490B40538098
S11305C011008022D2014B881342FCD106494A888B
S11305D003020648024013434B80064B984710BD64
S11305E015010000020C0040000C0040FFF0FFFF6A
S11305F0FFBFFFFF5501000010B50C78240204432F
S1130600024B9847A4B2024B5C8010BD9D050000CC
S1130610000C004010B50400064B9847064B1C70B4
S1130620064B5C882405240F054B98472000054B96
S1130630984710BD15010000020C0040000C00405A
S1130640550100001105000030B5D378002B35D1D9
S11306501378802B29D01B0680246402234354780A
S11306600225AC4306D19478002C20D18024A40226
S1130670234341605478013C012C1CD90D042D0CFA
S1130680A024E4052C431C4384620D0CD0242406CE
S11306902C431C438462D478002C22D15B031CD5E8
S11306A09378012B1ED0416117E00023D7E7C024C3
S11306B0E4022343DDE70D4C2340DFE741600C04F3
S11306C0240CA023DB05234383620C0CD0231B06DC
S11306D023438362D378002B03D15378013B012B4E
S11306E002D930BD8161F8E78160FAE7FFFFFBFFC3
S11306F010B50A00C1090023002904D14309DB0114
S113070005498C4663441F24204001218140180080
S1130710024B984710BDC046004400414906000002
S11307207047000010B5054B9847054B9847054B9B
S11307309847054B9847054B984710BD590300004F
S113074085010000210700002107000021070000A7
S1130750FEE70000F8B52A4A2A4B9A4211D01A0043
S1130760294B9A420DD2294A03339B1A9B08013321
S11307709B000022234822498C58845004329A4218
S1130780FAD1234A234B9A420AD2D34321495B1814
S113079003218B4304339B18002102C29342FCD1F2
S11307A01D4AFF211D4B8B439360FD3990235B0051
S11307B01B4AD1501B4AD3780325AB43022423435D
S11307C0D370D3780C27BB4308263343D370164B1E
S11307D0987B30229043202210439873997BB9432D
S11307E0314399739A7BAA4322439A730F4A5368FD
S11307F080210B4353600E4B98470E4B9847FEE7FE
S1130800C80C00000000002010000020040000209C
S1130810100000204C00002000ED00E0000000006B
S11308200070004100500041004800410040004178
S1130830110C000039080000D0B50D4B98470D4F3E
S11308400D4E0020B847FA22520000230021B04781
S11308500A4A002380185941094A0023094CA04739
S1130860094B984780221203084BDA61E9E7C04636
S11308702507000011050000E9090000571B0000CE
S1130880581B0000A9090000010000200044004199
S1130890002243088B4274D303098B425FD3030ABB
S11308A08B4244D3030B8B4228D3030C8B420DD3CE
S11308B0FF22090212BA030C8B4202D3121209025C
S11308C065D0030B8B4219D300E0090AC30B8B429A
S11308D001D3CB03C01A5241830B8B4201D38B0348
S11308E0C01A5241430B8B4201D34B03C01A5241ED
S11308F0030B8B4201D30B03C01A5241C30A8B4230
S113090001D3CB02C01A5241830A8B4201D38B021A
S1130910C01A5241430A8B4201D34B02C01A5241BE
S1130920030A8B4201D30B02C01A5241CDD2C30930
S11309308B4201D3CB01C01A524183098B4201D3AC
S11309408B01C01A524143098B4201D34B01C01A97
S1130950524103098B4201D30B01C01A5241C3080F
S11309608B4201D3CB00C01A524183088B4201D37E
S11309708B00C01A524143088B4201D34B00C01A6A
S11309805241411A00D20146524110467047FFE7D6
S113099001B5002000F006F802BDC0460029F7D0DA
S11309A076E770477047C046002B11D1002A0FD15B
S11309B0002900D1002802D00021C943081C07B433
S11309C0024802A14018029003BDC046D9FFFFFFB0
S11309D003B4684601B5029800F030F8019B9E46C6
S11309E002B00CBC7047C046F0B5CE46474615046D
S11309F02D0C2E0080B50704140C3F0C9946030CF3
S1130A007E435D43674363437F19340CE4199C467A
S1130A10A54203D980235B029846C4444B46514304
S1130A2043433604360C250C24046544A419591890
S1130A30491920000CBC90469946F0BDF0B55746C4
S1130A404E464546DE46E0B5040083B00D009246AE
S1130A5099468B422FD82CD04946504600F0AEF828
S1130A6029000600200000F0A9F8331A9846203B1C
S1130A709B4600D574E053465A4693401F005346A4
S1130A80424693401E00AF4229D826D05B46A41BA1
S1130A90BD41002B00DA79E000220023009201938B
S1130AA001235A4693400193012342469340009305
S1130AB019E08242D0D900220023009201930C9BBA
S1130AC0002B01D01C605D600098019903B03CBC10
S1130AD090469946A246AB46F0BDA342D6D9002221
S1130AE00023009201934346002BE8D0FB077208D1
S1130AF01A4346467B080EE0AB4201D1A2420CD811
S1130B00A41A9D41012024196D410021013E24189D
S1130B104D41002E06D0AB42EED9013E24196D4161
S1130B20002EF8D15B460098019900196941002B09
S1130B3022DB2B005A46D3402A004446E2401C00E4
S1130B405B461500002B2CDB26009E40330026005C
S1130B504746BE403200801A994100900191AEE7A9
S1130B60424620239B1A5246DA40414613004A4625
S1130B708A4017001F4382E7424620239B1A2A001B
S1130B8046469A402300F3401343D5E742462023C8
S1130B9000219B1A0022009101920122DA40019265
S1130BA082E74246202326009B1ADE402F00B446EB
S1130BB0974066463B003343C9E7C04610B5002959
S1130BC003D100F007F8203002E0081C00F002F81E
S1130BD010BDC0461C2101231B04984201D3000C04
S1130BE010391B0A984201D3000A08391B0998429C
S1130BF001D30009043902A2105C40187047C046B2
S1130C0004030202010101010000000000000000D1
S1130C1070B500260C4D0D4C641BA410A64209D1DE
S1130C20002600F03DF80A4D0A4C641BA410A642AD
S1130C3005D170BDB300EB5898470136EEE7B30019
S1130C40EB5898470136F2E7AC0C0000AC0C0000FE
S1130C50AC0C0000B00C0000F2010000EE0100003A
S1130C60EE010000540200005402000006020000DD
S1130C70F80100000C02000042020000DC02000047
S1130C80BC020000BC02000048030000CE020000C9
S1130C90EA020000C0020000F8020000380300006D
S1130CA0F8B5C046F8BC08BC9E467047DD0000009D
S1130CB0F8B5C046F8BC08BC9E467047B5000000B5
S10B0CC07CFDFF7F0100000030
S1130CC8BFF35F8F01380028FAD170470100000094
S9030755A0
