:1000000050200020C10F0000BD0F0000BD0F0000F8
:1000100000000000000000000000000000000000E0
:10002000000000000000000000000000BD0F000004
:100030000000000000000000BD0F0000BD0F000028
:10004000BD0F0000BD0F0000BD0F0000BD0F000080
:10005000BD0F0000BD0F0000BD0F0000BD0F000070
:10006000BD0F0000BD0F0000BD0F0000BD0F000060
:10007000BD0F0000BD0F0000BD0F0000BD0F000050
:10008000BD0F0000BD0F0000BD0F0000BD0F000040
:10009000BD0F00000000000000000000BD0F0000C8
:1000A000BD0F000000000000BD0F000000000000B8
:1000B0000000000010B5064C2378002B07D1054B3B
:1000C000002B02D0044800E000BF0123237010BDC4
:1000D000040000200000000074130000084B10B55D
:1000E000002B03D00749084800E000BF0748036819
:1000F000002B00D110BD064B002BFBD09847F9E731
:1001000000000000080000207413000074130000B9
:1001100000000000F0B5DE4657464E464546E0B5C5
:1001200091B005000C00160029600800AD4B9847FF
:10013000020023680520DB0706D511B03CBC9046C1
:100140009946A246AB46F0BD236817309B07F4D40E
:10015000A549086A971C0123BB4003430B620FA902
:100160002D27F35D0B701432D3B2029318009F4B0E
:10017000984702989E4B9847F05D00219D4B984709
:10018000F37A6B712423F35CAB712523F35CEB7181
:10019000F37E2B72337F6B722B6898461800914B5D
:1001A0009847143000220E2306A98C4663441A8017
:1001B000328A02928023DB019A4200D19FE00FD95C
:1001C000C023DB01029A9A4200D193E080231B02F4
:1001D0009A4200D001E1032306930023079308E02D
:1001E00080239B019A4200D0F7E0102306930F3B37
:1001F000079333689B46F368049373699A46337E8A
:1002000005932623F35C039373689946002B00D172
:10021000A1E080235B05994500D185E0737E002B2A
:1002200002D0B37E424693732A68029FD369002BA3
:10023000FCD10E3306AA944663441B884246938140
:100240005B46049A1343524613434A4613431F43E3
:10025000059B1B021F43039B5B071F432723F35C84
:10026000002B01D104331F43737E9B02327F520265
:100270001343727F120213432422B25C52041343CD
:100280002522B25C12041343B17AF27A1143194366
:100290003389FF2B00D182E0802252041743194397
:1002A0002C23F35C002B03D1534B9B789B0701D588
:1002B00080231F432A68D369002BFCD14346596031
:1002C0002A68D369002BFCD143461F600EAB802205
:1002D0001A7000225A70DA709A70336B0A93736B3B
:1002E0000B93B36B0C93F36B02930D9300270AAD42
:1002F000424E63E008230693073B079379E7336890
:100300009B46F368049373699A46337E05932623CC
:10031000F35C039373689946002B18D080235B0528
:10032000994501D0002025E02723F35C002B00D065
:1003300074E7336A1F00C0B2314B984701000E22A8
:1003400006AB9C46624438002E4B984712E00823C7
:100350000693002307932723F35C002B0ED0069B04
:100360000093079B0E2206A98C466244B16A306A4C
:10037000254FB847002800D0DFE64FE7336A1F005B
:10038000C0B21F4B98470100069B0093079B0E22AB
:1003900006A88446624438001B4FB847EAE7F37E5C
:1003A000002B00D17CE78023DB041F4378E720008B
:1003B000164B984707E00137042F0CD0F9B2BB0069
:1003C00058590028F3D0431CF5D00EA90870000C32
:1003D000C0B2B047EFE70020AFE61023069300233A
:1003E000079306E73908000000040040650E00008E
:1003F000D90D000075060000002000415D0F0000CF
:10040000810E0000B7050000E1050000C1060000F4
:10041000C3791C22002B01D1100070470368187E9D
:10042000173AC007F8D5DA69002AFCD119850221EC
:100430001A7E0A42FCD00022EEE70000F0B5CE465C
:10044000474680B583B0050001911720002A04D1EA
:1004500003B00CBC90469946F0BDEB790530002BFB
:10046000F6D02C68E369002BFCD1013A93B299468F
:10047000002601271F4B984611E0731C9BB2019A7E
:10048000915D6A79012A17D089B21E0028001A4BA3
:1004900098474B46013B9BB29946434513D0237E78
:1004A0003B42EAD1134B227E3A42E6D1012B19D0CE
:1004B000013B002BF7D1E0E70236B6B2019AD35CDC
:1004C0001B021943E2E7237E9B070DD4094B02214F
:1004D000227E0A420AD1012B0AD0013B002BF7D120
:1004E0000020B5E71220B3E70020B1E70020AFE716
:1004F0001220ADE7FFFF000011040000F0B5DE465A
:1005000057464E464546E0B587B0804604911600F2
:100510001F000022002300218B463F2401202100E0
:10052000009601975C4603944446059413E020240A
:10053000641A0500E540A84614E0009C019D121BCA
:10054000AB415C464D462C43A346039C45462C4399
:100550000394013925D3202464420C19E7D4050003
:10056000A540A84604008C40A14692185B411400A7
:100570001D00059E4F463E40B446049E47463E4001
:10058000B246664657463E4303D006002643320035
:100590002B00009C019D9D42DBD8CED19442D8D83F
:1005A000CBE7039B5846190007B03CBC90469946E0
:1005B000A246AB46F0BD10B5490840230024814255
:1005C00002D2180010BD1C00091A631C9BB288429D
:1005D000F9D94023FF2CF4D814800023F1E7000060
:1005E000F0B583B00F00160008AA117804004C4340
:1005F0004022BC4202D9100003B0F0BD002B14D140
:10060000020008000021194CA04701003A00002315
:100610000020174CA04700220123121A8B41120C14
:100620001B041A4332800022E5E70022012BF9D196
:100630000A00002300210D4CA04702000B0000928D
:100640000193380000210A4CA047050080239B013C
:1006500040229842CFD8790FF800009A019BA0471A
:10066000EA00821AD2B252032A43DBE711120000D9
:10067000FD04000010B582B004000E4B1B78002B67
:1006800007D0002905D10B4B5B78834210D01D2089
:100690000CE001A90C701320074B98471320074B5F
:1006A0009847044B5C7001221A70002002B010BD04
:1006B0000020FBE720000020650E0000D90D00009F
:1006C000404B984231D00AD93F4B98424DD03F4BD6
:1006D00098425AD03E4B984237D0002070473D4B4D
:1006E00098420CD03C4B9842F7D1012917D00029F1
:1006F0005DD0022915D0032915D00020EEE701298D
:1007000007D0002951D0022905D0032905D00020A7
:10071000E4E73248E2E73248E0E73248DEE73248D1
:10072000DCE73248DAE73248D8E7012907D0002968
:100730003FD0022905D0032905D00020CEE72D485F
:10074000CCE72D48CAE72D48C8E7012907D0002982
:1007500031D0022905D0032905D00020BEE7284862
:10076000BCE72848BAE72848B8E7012907D000299C
:1007700023D0022905D0032905D00020AEE7234865
:10078000ACE72348AAE72348A8E7012907D00029B6
:1007900015D0022905D0032905D000209EE71E4868
:1007A0009CE71E489AE71E4898E71E4896E70320F4
:1007B00094E71D4892E71D4890E71D488EE71D48C5
:1007C0008CE7C0460010004200180042001C0042A6
:1007D0000014004200080042000C00420300050023
:1007E00003000600030007000300010003001E00D1
:1007F00003001F0002000D0002000E0002000F00A7
:1008000003001100030012000300130005003F0065
:1008100005003E0005005200030017000300180009
:10082000030019000300040002000C000300100084
:10083000050053000300160030B587B00B4B6A4625
:1008400032CB32C232CB32C2009B83420BD0012367
:100850009A0069465258824206D00133062BF7D1DE
:10086000002007B030BD0023D8B2FAE7BC12000068
:1008700030B591B08023DB05009300230193FF2264
:1008800069460A8100228B72CB72012124206C46BA
:1008900021540130215425316354013163540A93AA
:1008A000053163540131635405932382E376227644
:1008B000227762761323A3766277E1235B020893A3
:1008C00080235B0303930D4B0C930D4B0D9301237E
:1008D0005B420E930F930B4D0B4C6A460B4928005D
:1008E000A0470028F9D1074B1A68D369002BFCD127
:1008F000136802210B43136011B030BD03000400E4
:10090000030005004400002015010000000800421B
:1009100010B50A0001000248024B984710BDC046BE
:10092000440000203D04000070B5054D0422054937
:100930002800054CA047062204492800A04770BDA6
:1009400044000020D41200003D040000DC1200002E
:100950000C4B1B68002B06D1EFF31083002B07D044
:100960000022094B1A70074A13680133136070475D
:1009700072B6BFF35F8F0022044B1A700132024B34
:100980001A70F0E72400002028000020000000205A
:10099000084B1A68013A1A601B68002B09D1064BF4
:1009A0001B78002B05D00122044B1A70BFF35F8F18
:1009B00062B67047240000202800002000000020BC
:1009C000F0B583B001AC012565700027A7702570D4
:1009D00021001320064EB04780221203054B9A6176
:1009E0002770657021001C20B04703B0F0BDC046E1
:1009F000F90900000044004100B583B001AB80223A
:100A00001A700A785A704A789A708A78DA701900DF
:100A1000014B984703B000BD5D0F000010B50828DA
:100A200003D880001C4B1B589F46002032E01B4B14
:100A300018692FE01A4B1B6A9B059B0F1948D84079
:100A400028E0164B586925E0144B1B6800209B07D3
:100A500020D513491022CB681A42FCD00F4B1A68DC
:100A600024231340042B01D00F4813E000200F4B28
:100A700098470A4B9B681B041B0C58430AE0502301
:100A8000074AD35C00205B0704D5044BD86801E01B
:100A90008020000210BDC046E41200002C0000209F
:100AA0000008004000127A00006CDC02810E000099
:100AB00070B50C490B6A04788578407801221040A3
:100AC00080014026B34303432A40D2018020834360
:100AD00013430322224012020348034013430B62D4
:100AE00070BDC04600080040FFFCFFFF082803D887
:100AF0008000254B1B589F46172044E0234A136A69
:100B000002210B43136200203DE0204A9369022139
:100B10000B439361002036E01C4A138A02210B43E9
:100B2000138200202FE0194A938A02210B439382FB
:100B3000002028E016490B68022213430B60134B78
:100B40009A8419000E32CB681A42FCD0104A916880
:100B50000E4BD96252689A6200229A8419001032B0
:100B6000CB681A42FCD00A4B1B689BB2074A93849D
:100B7000002008E0054944228B5C022003438B548B
:100B8000002000E00020704708130000000800402B
:100B90002C00002030B585B0C222D2001A4B9A60DA
:100BA0001A4A53681E218B43536001236A4613700F
:100BB0000024174DE0B26946A8470134252CF9D12D
:100BC00003A800244470012585700470114B9847D8
:100BD0000620114B9847114B9847114B1C725C72C1
:100BE0009C72DC7201956B465C7006236A4613703A
:100BF00014725472694600200A4B984700200A4B31
:100C0000984705B030BDC046000800400040004194
:100C1000650E0000B10A0000ED0A00002D0C000076
:100C200000040040510C0000090D0000064A9369C1
:100C300008210B4393610122044B1A7019000B78B1
:100C40001342FCD17047C04600040040000C004035
:100C500070B5060004000D782D0205434B78002B7B
:100C600002D08023DB021D434B7A002B02D080236D
:100C70001B031D434868012810D9431E184234D174
:100C8000022830D90223002201325B009842FBD8AF
:100C900012023243140080235B031D430B7A002BA6
:100CA00002D080239B031D43134A53785BB2002B71
:100CB000FBDB124B9847124B1E700F4A53785BB206
:100CC000002BFBDB0C4B9C601A0053785BB2002BB3
:100CD000FBDB094A5368802149020B401D435560E4
:100CE000084B984770BD0022D2E7040234438023AA
:100CF0009B021D43D2E7C046000C00405109000092
:100D0000080C00409109000010B504000B4A53780C
:100D10005BB2002BFBDB0A4B98470A4B1C70074A5F
:100D200053785BB2002BFBDB044A516880235B02E3
:100D30000B435360044B984710BDC046000C004065
:100D400051090000040C00409109000070B5040036
:100D50001A4A53785BB2002BFBDB194B9847194BAF
:100D60001C70164A53785BB2002BFBDB134E706885
:100D7000C004C00E144B98470500124B1C707668D7
:100D8000F602F60F114B1C700C4A53785BB2002B25
:100D9000FBDB0A4B9C682402240C0D4B9847002E69
:100DA00007D1012C07D9210028000A4B98470500DC
:100DB00001E00134E540280070BDC046000C004051
:100DC00051090000040C00401D0A0000080C0040FE
:100DD00091090000F910000010B50400064B984777
:100DE000064B1C70064A53888021C9010B4353806F
:100DF000044B984710BDC04651090000020C00404A
:100E0000000C00409109000010B504000F4B9847FA
:100E10000F4B1C700F4A53881B05180F53880E493F
:100E20000B40538053880D490B40538011008022A2
:100E3000D2014B881342FCD106494A880302064876
:100E4000024013434B80064B984710BD51090000E8
:100E5000020C0040000C0040FFF0FFFFFFBFFFFF4F
:100E60009109000010B50C7824020443024B984706
:100E7000A4B2024B5C8010BD090E0000000C0040C3
:100E800010B50400064B9847064B1C70064B5C8857
:100E90002405240F054B98472000054B984710BDAB
:100EA00051090000020C0040000C004091090000B4
:100EB0004D0D000030B5D378002B35D11378802B41
:100EC00029D01B0680246402234354780225AC43B6
:100ED00006D19478002C20D18024A40223434160C1
:100EE0005478013C012C1CD90D042D0CA024E405E0
:100EF0002C431C4384620D0CD02424062C431C4339
:100F00008462D478002C22D15B031CD59378012B0A
:100F10001ED0416117E00023D7E7C024E402234339
:100F2000DDE70D4C2340DFE741600C04240CA023D7
:100F3000DB05234383620C0CD0231B06234383620F
:100F4000D378002B03D15378013B012B02D930BD5C
:100F50008161F8E78160FAE7FFFFFBFF10B50A0047
:100F6000C1090023002904D14309DB0105498C464E
:100F700063441F242040012181401800024B984700
:100F800010BDC04600440041B50E0000704700008F
:100F900010B5054B9847054B9847054B9847054BAF
:100FA0009847054B984710BD950B0000C1090000FC
:100FB0008D0F00008D0F00008D0F0000FEE7000078
:100FC000F8B52A4A2A4B9A4211D01A00294B9A4264
:100FD0000DD2294A03339B1A9B0801339B00002240
:100FE000234822498C58845004329A42FAD1234A29
:100FF000234B9A420AD2D34321495B1803218B43E6
:1010000004339B18002102C29342FCD11D4AFF21E8
:101010001D4B8B439360FD3990235B001B4AD150DD
:101020001B4AD3780325AB4302242343D370D378E0
:101030000C27BB4308263343D370164B987B3022D2
:101040009043202210439873997BB943314399739D
:101050009A7BAA4322439A730F4A536880210B4319
:1010600053600E4B98470E4B9847FEE774130000F1
:1010700000000020040000200400002004000020E4
:101080005000002000ED00E0000000000070004172
:10109000005000410048004100400041651200003E
:1010A000A510000030B58BB02822002168460C4BFB
:1010B00098470C4B98470C4B98470C4B98470C4B58
:1010C0006A4623CB23C223CB23C223CB23C2198856
:1010D00011809B78937028216846064B9847FEE75D
:1010E000AD120000910F00007108000029090000F6
:1010F0002C13000011090000002243088B4274D316
:1011000003098B425FD3030A8B4244D3030B8B4208
:1011100028D3030C8B420DD3FF22090212BA030C11
:101120008B4202D31212090265D0030B8B4219D3F2
:1011300000E0090AC30B8B4201D3CB03C01A524112
:10114000830B8B4201D38B03C01A5241430B8B425A
:1011500001D34B03C01A5241030B8B4201D30B0343
:10116000C01A5241C30A8B4201D3CB02C01A52416A
:10117000830A8B4201D38B02C01A5241430A8B422D
:1011800001D34B02C01A5241030A8B4201D30B0216
:10119000C01A5241CDD2C3098B4201D3CB01C01A30
:1011A000524183098B4201D38B01C01A524143093A
:1011B0008B4201D34B01C01A524103098B4201D328
:1011C0000B01C01A5241C3088B4201D3CB00C01A95
:1011D000524183088B4201D38B00C01A524143080D
:1011E0008B4201D34B00C01A5241411A00D2014632
:1011F000524110467047FFE701B5002000F006F8A5
:1012000002BDC0460029F7D076E770477047C04658
:10121000F0B5CE46474615042D0C2E0080B50704C8
:10122000140C3F0C9946030C7E435D4367436343B4
:101230007F19340CE4199C46A54203D980235B0234
:101240009846C4444B46514343433604360C250C60
:1012500024046544A4195918491920000CBC90466F
:101260009946F0BD70B500260C4D0D4C641BA410C2
:10127000A64209D1002600F06DF80A4D0A4C641B05
:10128000A410A64205D170BDB300EB5898470136B3
:10129000EEE7B300EB5898470136F2E76013000021
:1012A0006013000060130000641300000300821844
:1012B000934200D1704719700133F9E700080042EA
:1012C000000C0042001000420014004200180042CE
:1012D000001C00421B5B324A000000001B5B303BDD
:1012E000304800002E0A00002A0A00002A0A0000E6
:1012F000900A0000900A0000420A0000340A000030
:10130000480A00007E0A0000180B0000F80A0000DE
:10131000F80A0000840B00000A0B0000260B0000F6
:10132000FC0A0000340B0000740B000041544543DC
:101330004331333241202020202020202020202033
:10134000202020202020202020202020202020209D
:101350000A0D0000F8B5C046F8BC08BC9E467047B0
:10136000DD000000F8B5C046F8BC08BC9E467047DA
:04137000B5000000C4
:041374000100000074
:0400000300000FC129
:00000001FF
