S0120000555341525420546573742E73726563C3
S1130000282000202501000021010000210100001A
S113001000000000000000000000000000000000DC
S113002000000000000000000000000021010000AA
S11300300000000000000000210100002101000078
S11300402101000021010000210100002101000024
S11300502101000021010000210100002101000014
S11300602101000021010000210100002101000004
S113007021010000210100002101000021010000F4
S113008021010000210100002101000021010000E4
S113009021010000210100002101000021010000D4
S11300A021010000210100002101000000000000E6
S11300B00000000010B5064C2378002B07D1054B37
S11300C0002B02D0044800E000BF0123237010BDC0
S11300D00000002000000000CC070000084B10B511
S11300E0002B03D00749084800E000BF0748036815
S11300F0002B00D110BD064B002BFBD09847F9E72D
S11301000000000004000020CC070000CC07000021
S11301100000000010B5014B984710BD9502000087
S1130120FEE70000F8B52A4A2A4B9A4211D01A0079
S1130130294B9A420DD2294A03339B1A9B08013357
S11301409B000022234822498C58845004329A424E
S1130150FAD1234A234B9A420AD2D34321495B184A
S113016003218B4304339B18002102C29342FCD128
S11301701D4AFF211D4B8B439360FD3990235B0087
S11301801B4AD1501B4AD3780325AB430224234393
S1130190D370D3780C27BB4308263343D370164B54
S11301A0987B30229043202210439873997BB94363
S11301B0314399739A7BAA4322439A730F4A536833
S11301C080210B4353600E4B98470E4B9847FEE734
S11301D0CC070000000000200000002004000020E4
S11301E0000000202800002000ED00E000000000D6
S11301F000700041005000410048004100400041AF
S1130200D50600005106000030B50E4B4422995C1F
S11302100125A94301242143C9B299543220195C10
S1130220353A91430C3A1143195445215A5CAA4377
S11302302243D2B25A541A5C36390A4021310A4355
S11302401A5430BD00440041044A136A04210B438C
S11302501362034A034B5A807047C04600040040AF
S113026014400000000C004010B5054B98470022D4
S113027004490548054B9847054B984710BDC046AF
S113028049020000000800421C000020F5030000A1
S11302900902000010B5024B9847024B984710BD65
S11302A0A10400006902000070B506000C001500EE
S11302B000280DD00800431E9841C0B234220549DD
S11302C0054B984733682A0021003000984770BDD9
S11302D00020F3E72C0700009904000070B5060025
S11302E00C00150000280DD00800431E9841C0B230
S11302F03D220549054B984773682A0021003000C8
S1130300984770BD0020F3E72C0700009904000013
S1130310F8B5CE46474680B504000F009046002845
S113032026D0002926D01000431E9841F1221249FC
S1130330124B98470834124D2000A8470028FBD0E0
S11303400026104B99460E4DB95D2000C847200089
S1130350A8470028FBD001364645F5D30A4D2000B6
S1130360A8470028FBD030000CBC90469946F8BD45
S11303700020DBE70020D9E74007000099040000D3
S1130380D9050000C9050000E3050000F8B5CE4614
S1130390474680B504000F00904600281DD0002970
S11303A01DD01000431E9841862252000D490E4B69
S11303B09847002608340D4D0D4B99462000A84758
S11303C00028FBD02000C847B85501364645F5D370
S11303D030000CBC90469946F8BD0020E4E70020AC
S11303E0E2E7C0464007000099040000ED05000064
S11303F0D105000070B505000C00002813D00800DA
S1130400431E9841C0B234220849094B984728003A
S113041008302100074B9847002803D1064B6B6036
S1130420064B2B6070BD0020EDE7C046400700007E
S113043099040000890500008D03000011030000E9
S113044010B50400431E9841C0B253220449054B21
S1130450984720000830044B9847002010BDC04640
S11304604007000099040000B505000070B50400C1
S11304700D0000280AD00800431E9841C0B269222A
S11304800349044B98472C60002070BD0020F6E718
S11304904007000099040000002800D100BE704706
S11304A010B5074B5A685A60064B9847064B984755
S11304B00820064CA047064B9847F720A04710BDDC
S11304C000400041ED040000F9050000D5040000DF
S11304D041060000C30706D5034B802252009A60F0
S11304E0832252025A607047000C0040064B1A7A6D
S11304F0D2B21A725A7AD2B25A729A7AD2B29A7220
S1130500DA7AD2B2DA7270470004004010B50400FF
S1130510174BC3189B0ADBB2002B04D0154A1649AB
S11305200020164B9847E369DB070FD423689B0729
S11305300AD50322E3691A42FCD1236802229343B9
S11305402360E3691A42FCD1052323600122E36995
S11305501A42FCD10A4B2360C0239B026360094BFF
S1130560A3810023A3733022A354002010BDC046EE
S113057000F8FFBD3A0200005C0700009904000087
S113058004001040ADD8FFFF70B505000C00431EF9
S11305909841C0B2B4220449044B98472C6020000F
S11305A0034B984770BDC0465C07000099040000E7
S11305B00D05000002680321D3691942FCD11368B8
S11305C002210B4313607047036889B21985704791
S11305D00368188DC0B270470368187E0123184061
S11305E070470368187E8007C00F70470368187E41
S11305F04007C00F704700000E4B1A6A196A0E4874
S11306000240890F89070D4801430A431A629A6917
S113061002210A439A611A7F1D310A401A77190090
S11306200822CB681A42FCD0024A136A80210B4389
S113063013627047000800400000FF0F020300002F
S1130640024A936902218B4393617047000800407A
S113065030B58BB0164B197809AA117001AC04336C
S1130660220023CB23C21B6813600E22002105A89D
S1130670104B9847104B9847104D69462800104B73
S1130680984728000F4B98470F22210000980E4CE2
S1130690A0470C220D490098A0470D4D0A4C012299
S11306A009A90098A847012209A90098A047F6E7DC
S11306B0780700001D070000150100001C00002041
S11306C06D04000041040000A90200009C07000022
S11306D0DD02000070B500260C4D0D4C641BA41007
S11306E0A64209D1002600F061F80A4D0A4C641BA9
S11306F0A410A64205D170BDB300EB58984701364B
S1130700EEE7B300EB5898470136F2E7B80700006C
S1130710B8070000B8070000BC07000003008218F7
S1130720934200D1704719700133F9E72E2E2F68D8
S1130730616C2F7372632F68616C5F696F2E630045
S11307402E2E2F68616C2F7372632F68616C5F7536
S1130750736172745F73796E632E63002E2E2F683B
S1130760706C2F736572636F6D2F68706C5F736547
S113077072636F6D2E630000620000005553415296
S11307805420456E61626C65640A0D00000000002F
S1130790000000000000000000000000456E7465C9
S11307A07220546578740A0D00000000F8B5C04644
S11307B0F8BC08BC9E467047DD000000F8B5C04692
S10F07C0F8BC08BC9E467047B500000061
S9030000FC
